:100000000C942A000C9447000C9447000C94470071
:100010000C9447000C9447000C9447000C94651511
:100020000C9447000C9432150C9447000C94470034
:100030000C9447000C9447000C9447000C94470024
:100040000C9447000C9447000C9447000C94470014
:100050000C94470011241FBECFE5D8E0DEBFCDBF12
:1000600011E0A8E6B1E001C01D92AD37B107E1F79C
:1000700011E0A0E6B0E0ECEDFEE202C005900D92CA
:10008000A836B107D9F70E9417070C946C170C9487
:100090000000EF92FF920F931F937B018C0120E0F1
:1000A00030E040E05FE40E94F50388238CF0C80153
:1000B000B70120E030E040E05FE40E94C1010E940F
:1000C00055049B01AC01205030404040504806C0D0
:1000D000C801B7010E9455049B01AC01B901CA01D6
:1000E0001F910F91FF90EF900895A0E0B0E0EBE733
:1000F000F0E00C943517DC012B01FA019C91923051
:1001000008F439C1EB018881823008F433C194309E
:1001100069F4843009F02FC111969C91119789815F
:10012000981709F428C1A0E6B0E025C1843009F48D
:1001300021C18230A9F4923009F01DC19A01AD01AC
:1001400088E0EA010990AE01E90109929E0181501F
:10015000C1F7E201898111969C918923818308C1AD
:10016000923009F407C112962D903C901397EB0141
:100170008A819B811496AD90BD90CD90DC901797AD
:10018000EC80FD800E811F819101281B390BB90184
:1001900037FF04C066277727621B730B6032710537
:1001A0000CF061C0121613066CF537014801062EDB
:1001B00004C096948794779467940A94D2F721E0C8
:1001C00030E040E050E004C0220F331F441F551FB1
:1001D0006A95D2F721503040404050402E213F21B7
:1001E00040235123211531054105510521F021E01E
:1001F00030E040E050E079018A01E628F72808293C
:1002000019293CC0232BD1F1260E371E350146019A
:10021000062E04C096948794779467940A94D2F734
:1002200021E030E040E050E004C0220F331F441FC3
:10023000551F6A95D2F721503040404050402A2146
:100240003B214C215D21211531054105510521F04E
:1002500021E030E040E050E059016A01A628B728CB
:10026000C828D9280BC0821593052CF01C01AA249C
:10027000BB24650103C0EE24FF24870111969C91E5
:10028000D20111968C91981709F445C0992339F041
:10029000A80197012A193B094C095D0906C0A6016E
:1002A00095012E193F09400B510B57FD08C01182D3
:1002B0003382228224833583468357831DC081E0A5
:1002C00081833382228288279927DC01821B930B4A
:1002D000A40BB50B84839583A683B7830DC0220F2F
:1002E000331F441F551F24833583468357838281E0
:1002F000938101979383828324813581468157813D
:10030000DA01C9010197A109B1098F5F9F4FAF4F72
:10031000BF4328F30BC0918333822282EA0CFB1C7B
:100320000C1D1D1DE482F5820683178383E0808304
:10033000248135814681578157FF1AC0C901AA27F8
:1003400097FDA095BA2F81709070A070B0705695EF
:10035000479537952795822B932BA42BB52B848318
:100360009583A683B7838281938101969383828349
:10037000DF0101C0D201CD01CDB7DEB7E2E10C94BF
:100380005117A0E2B0E0E7ECF1E00C94411769836B
:100390007A838B839C832D833E834F835887E9E048
:1003A000EE2EF12CEC0EFD1ECE010196B7010E943F
:1003B00046068E010F5E1F4FCE010596B8010E94C2
:1003C00046068A8991E089278A8BC701B801AE0168
:1003D000475E5F4F0E9475000E947105A096E6E09F
:1003E0000C945D17A0E2B0E0E8EFF1E00C94411747
:1003F00069837A838B839C832D833E834F835887C5
:10040000F9E0EF2EF12CEC0EFD1ECE010196B701A6
:100410000E9446068E010F5E1F4FCE010596B80161
:100420000E944606C701B801AE01475E5F4F0E94B9
:1004300075000E947105A096E6E00C945D17A0E29D
:10044000B0E0E5E2F2E00C94351769837A838B83A0
:100450009C832D833E834F835887CE010196BE0136
:10046000675F7F4F0E944606CE010596BE016F5E14
:100470007F4F0E9446069985923088F089898230A4
:10048000C8F0943019F4823051F404C0843029F457
:10049000923081F480E690E0C6C0923049F420E0CA
:1004A0009A858A89981321E02A87CE010996BBC0D4
:1004B000823049F420E09A858A89981321E02A8BBA
:1004C000CE014196B0C02D843E844F8458886D88FB
:1004D0007E888F88988CEE24FF248701AA24BB2471
:1004E000650140E050E060E070E0E0E0F0E0C10174
:1004F00081709070892BE9F0E60CF71C081D191D1E
:100500009A01AB012A0D3B1D4C1D5D1D80E090E062
:10051000A0E0B0E0E614F7040805190520F481E036
:1005200090E0A0E0B0E0BA01A901480F591F6A1F8E
:100530007B1FAA0CBB1CCC1CDD1C97FE08C081E0F5
:1005400090E0A0E0B0E0A82AB92ACA2ADB2A3196B6
:10055000E032F10549F0660C771C881C991C569412
:10056000479437942794C3CFFA85EA892B893C892D
:100570008B859C85280F391F2E5F3F4F17C0CA01FE
:1005800081709070892B61F016950795F794E79428
:1005900080E090E0A0E0B0E8E82AF92A0A2B1B2BC3
:1005A00076956795579547952F5F3F4F77FDE7CF36
:1005B0000CC0440F551F661F771F17FD4160EE0CDE
:1005C000FF1C001F111F21503040403090E05907A0
:1005D00090E0690790E4790760F32B8F3C8FDB0193
:1005E000CA018F779070A070B07080349105A1051A
:1005F000B10561F447FD0AC0E114F10401051105DC
:1006000029F0405C5F4F6F4F7F4F40781A8EFE1786
:1006100011F081E08A8F4D8F5E8F6F8F78A383E01A
:10062000898FCE0149960E947105A096E2E10C9453
:100630005117A8E1B0E0EFE1F3E00C943D176983B6
:100640007A838B839C832D833E834F835887B9E0C5
:10065000EB2EF12CEC0EFD1ECE010196B7010E948F
:1006600046068E010F5E1F4FCE010596B8010E940F
:1006700046062985223008F47EC03989323010F4CC
:10068000B8017CC08A859A8989278A87243011F02D
:10069000223031F4231709F06EC060E670E06EC0BE
:1006A000343039F41D861E861F86188A1C861B86E8
:1006B00004C0323021F484E08987B7015FC02B8504
:1006C0003C858B899C89281B390B3C872B87ED84C3
:1006D000FE840F851889AD88BE88CF88D88CEA142F
:1006E000FB040C051D0540F4EE0CFF1C001F111F40
:1006F000215030403C872B8720E030E040E050E044
:1007000080E090E0A0E0B0E460E070E0EA14FB0478
:100710000C051D0540F0282B392B4A2B5B2BEA18C2
:10072000FB080C091D09B695A79597958795EE0CC2
:10073000FF1C001F111F6F5F7F4F6F31710531F775
:10074000DA01C9018F779070A070B0708034910584
:10075000A105B10561F427FD0AC0E114F10401050A
:10076000110529F0205C3F4F4F4F5F4F20782D87B8
:100770003E874F87588BBE01675F7F4FCB010E943A
:1007800071056896EAE00C945917A8E1B0E0EBEC2B
:10079000F3E00C94411769837A838B839C832D83C8
:1007A0003E834F83588789E0E82EF12CEC0EFD1E26
:1007B000CE010196B7010E9446068E010F5E1F4FC3
:1007C000CE010596B8010E9446068985823040F028
:1007D0008989823028F0C701B8010E94BE0601C095
:1007E0008FEF6896E6E00C945D17A8E1B0E0EBEFC0
:1007F000F3E00C94411769837A838B839C832D8368
:100800003E834F83588789E0E82EF12CEC0EFD1EC5
:10081000CE010196B7010E9446068E010F5E1F4F62
:10082000CE010596B8010E9446068985823040F0C7
:100830008989823028F0C701B8010E94BE0601C034
:100840008FEF6896E6E00C945D17A8E1B0E0EBE26C
:10085000F4E00C94411769837A838B839C832D8306
:100860003E834F83588789E0E82EF12CEC0EFD1E65
:10087000CE010196B7010E9446068E010F5E1F4F02
:10088000CE010596B8010E9446068985823040F067
:100890008989823028F0C701B8010E94BE0601C0D4
:1008A00081E06896E6E00C945D17ACE0B0E0EBE523
:1008B000F4E00C94451769837A838B839C83CE0183
:1008C0000196BE016B5F7F4F0E9446068D8182308C
:1008D00061F1823050F1843021F48E81882351F10E
:1008E0002EC02F81388537FD20C06E812F31310514
:1008F0001CF06623F9F023C08EE190E0821B930B7D
:1009000029853A854B855C8504C056954795379572
:1009100027958A95D2F76623B1F05095409530958A
:1009200021953F4F4F4F5F4F0EC020E030E040E039
:1009300050E009C02FEF3FEF4FEF5FE704C020E02A
:1009400030E040E050E8B901CA012C96E2E00C9496
:100950006117A8E0B0E0EFEAF4E00C943D177B01EA
:100960008C01611571058105910519F482E0898377
:1009700060C083E089838EE1C82ED12CDC82CB82DB
:10098000ED82FE820F831887C801B7010E942205FD
:10099000FC013197F7FF3BC0222733272E1B3F0B6B
:1009A00057016801022E04C0D694C794B794A79447
:1009B0000A94D2F740E050E060E070E081E090E01F
:1009C000A0E0B0E004C0880F991FAA1FBB1F2A95A2
:1009D000D2F70197A109B1098E219F21A023B1234C
:1009E0000097A105B10521F041E050E060E070E022
:1009F0004A295B296C297D294D835E836F83788723
:100A00008EE190E08E1B9F0B9C838B8312C03097EE
:100A100081F00E2E04C0EE0CFF1C001F111F0A9463
:100A2000D2F7ED82FE820F831887CE1ADF0ADC82AE
:100A3000CB821A82CE0101960E9471052896EAE0C7
:100A40000C945917EF92FF920F931F937B018C0127
:100A500080E0E81680E0F80681E0080780E01807EB
:100A600088F48FEFE816F1040105110531F028F044
:100A700088E090E0A0E0B0E017C080E090E0A0E067
:100A8000B0E012C080E0E81680E0F80680E00807D9
:100A900081E0180728F088E190E0A0E0B0E004C011
:100AA00080E190E0A0E0B0E020E230E040E050E003
:100AB000281B390B4A0B5B0B04C016950795F7945E
:100AC000E7948A95D2F7F701E859FF4F8081281BF8
:100AD000310941095109C9011F910F91FF90EF9010
:100AE0000895DF92EF92FF920F931F93FC01E48031
:100AF000F58006811781D1808081823048F480E0C2
:100B000090E0A0E1B0E0E82AF92A0A2B1B2BA5C04F
:100B1000843009F49FC0823021F4EE24FF24870141
:100B200005C0E114F1040105110519F4E0E0F0E05D
:100B300096C0628173819FEF623879070CF05BC0C9
:100B400022E83FEF261B370B2A3131052CF020E03D
:100B500030E040E050E02AC0B801A701022E04C0F6
:100B600076956795579547950A94D2F781E090E07E
:100B7000A0E0B0E004C0880F991FAA1FBB1F2A95F0
:100B8000D2F70197A109B1098E219F21A023B1239A
:100B90000097A105B10521F081E090E0A0E0B0E070
:100BA0009A01AB01282B392B4A2B5B2BDA01C901A7
:100BB0008F779070A070B07080349105A105B10559
:100BC00039F427FF09C0205C3F4F4F4F5F4F04C0EF
:100BD000215C3F4F4F4F5F4FE0E0F0E02030A0E05E
:100BE0003A07A0E04A07A0E45A0710F0E1E0F0E07D
:100BF00079018A0127C06038710564F5FB01E1586D
:100C0000FF4FD801C7018F779070A070B07080340B
:100C10009105A105B10539F4E7FE0DC080E490E02F
:100C2000A0E0B0E004C08FE390E0A0E0B0E0E80E08
:100C3000F91E0A1F1B1F17FF05C016950795F7948D
:100C4000E794319687E016950795F794E7948A958F
:100C5000D1F705C0EE24FF248701EFEFF0E06E2FFF
:100C6000679566276795902F9F77D794DD24D79453
:100C70008E2F8695492F462B582F5D29B701CA0123
:100C80001F910F91FF90EF90DF900895FC01DB0121
:100C9000408151812281622F6F7770E0221F2227CD
:100CA000221F9381892F880F822B282F30E0991FD4
:100CB0009927991F11969C93119721153105A9F534
:100CC000411551056105710511F482E037C082E8D4
:100CD0009FEF13969C938E9312979A01AB0167E056
:100CE000220F331F441F551F6A95D1F783E08C9361
:100CF0000DC0220F331F441F551F12968D919C91DA
:100D00001397019713969C938E931297203080E04F
:100D1000380780E0480780E4580758F314962D936D
:100D20003D934D935C93179708952F3F310579F4C8
:100D3000411551056105710519F484E08C930895FE
:100D400064FF03C081E08C9312C01C9210C02F5727
:100D5000304013963C932E93129783E08C9387E058
:100D6000440F551F661F771F8A95D1F7706414963C
:100D70004D935D936D937C93179708951F93DC01BA
:100D8000FB019C91923008F447C08081823008F4C6
:100D900043C0943051F411961C91843099F58181AF
:100DA000682F70E0611B71093FC0843021F09230E0
:100DB00031F48230B9F18181882389F12DC01196F7
:100DC0001C9111978230F1F081811817D9F4129695
:100DD0002D913C911397828193818217930794F010
:100DE00028173907BCF014968D919D910D90BC91F8
:100DF000A02D2481358146815781281739074A075C
:100E00005B0718F4112341F00AC082179307A40767
:100E1000B50740F4112319F061E070E005C06FEFF1
:100E20007FEF02C060E070E0CB011F910895DF9377
:100E3000CF93CDB7DEB762970FB6F894DEBF0FBE83
:100E4000CDBF82E062E041E00E94E70F82E063E014
:100E500041E00E94E70F82E064E041E00E94E70F7A
:100E600082E065E041E00E94E70F82E066E041E059
:100E70000E94E70F82E067E041E00E94E70F83E015
:100E800062E041E00E94E70F0E94C90E60E875E24F
:100E900080E090E00E94161683E08F8781E0888BC7
:100EA000CE010F960E946F0E80E090E0A8ECB2E4B5
:100EB0008B879C87AD87BE876B857C858D859E855E
:100EC00020E030E04AEF54E40E941F02DC01CB0135
:100ED0008F839887A987BA876F81788589859A8556
:100EE00020E030E040E85FE30E94250488232CF4F2
:100EF00081E090E09E838D833FC06F8178858985F6
:100F00009A8520E03FEF4FE757E40E94C50318168B
:100F10004CF56B857C858D859E8520E030E040E238
:100F200051E40E941F02DC01CB01BC01CD010E94F3
:100F30004900DC01CB019E838D830FC088EC90E0DB
:100F40009C838B838B819C810197F1F79C838B839E
:100F50008D819E8101979E838D838D819E810097D7
:100F600069F714C06F81788589859A850E94490048
:100F7000DC01CB019E838D838D819E819A83898341
:100F800089819A810197F1F79A8389838BE691E0B1
:100F900025E731E0B9010E946B0A8BE691E022E778
:100FA00031E0B9010E949908109268010E947916F7
:100FB0008093710180917101282F30E03A8B298B49
:100FC00089899A89009731F029893A892130310538
:100FD00049F0EACF8BE691E022E731E0B9010E94C7
:100FE000AF0AE2CF8BE691E025E731E0B9010E943C
:100FF000B70CDACF0F931F93DF93CF93CDB7DEB744
:1010000061970FB6F894DEBF0FBECDBF998B888B6A
:101010001F860FC08F85282F30E0888999898C0121
:10102000020F131F0E947916F80180838F858F5F4E
:101030008F878F85823070F380E090E0A8E4B3E47E
:101040008B879C87AD87BE876B857C858D859E85CC
:1010500020E030E04AEF54E40E941F02DC01CB01A3
:101060008F839887A987BA876F81788589859A85C4
:1010700020E030E040E85FE30E94250488232CF460
:1010800081E090E09E838D833FC06F817885898564
:101090009A8520E03FEF4FE757E40E94C5031816FA
:1010A0004CF56B857C858D859E8520E030E040E2A7
:1010B00051E40E941F02DC01CB01BC01CD010E9462
:1010C0004900DC01CB019E838D830FC088EC90E04A
:1010D0009C838B838B819C810197F1F79C838B830D
:1010E0008D819E8101979E838D838D819E81009746
:1010F00069F714C06F81788589859A850E944900B7
:10110000DC01CB019E838D838D819E819A838983AF
:1011100089819A810197F1F79A83898361960FB645
:10112000F894DEBF0FBECDBFCF91DF911F910F911D
:101130000895DF93CF9300D000D0CDB7DEB79A8368
:1011400089837C836B8389819A810E94FA078B81D2
:101150009C810E94FA0789819A812B813C81B90187
:101160000E942B0A80936E0114C081E00E946216D7
:1011700089819A810E94FA078B819C810E94FA07DB
:1011800089819A812B813C81B9010E942B0A80932D
:101190006E0180916E01813041F380E00E94621601
:1011A0008B819C8161E173E00E94DD080F900F90BC
:1011B0000F900F90CF91DF910895DF93CF93CDB72C
:1011C000DEB763970FB6F894DEBF0FBECDBF998B25
:1011D000888B7B8B6A8B1F861F868AC08F85282F02
:1011E00030E08A899B89A901480F591F8F85282FD4
:1011F00030E088899989FC01E20FF31F2081CA0140
:10120000622F0E94460F80E090E0A6E9B3E48B874E
:101210009C87AD87BE876B857C858D859E8520E00C
:1012200030E04AEF54E40E941F02DC01CB018F83BF
:101230009887A987BA876F81788589859A8520E004
:1012400030E040E85FE30E94250488232CF481E02D
:1012500090E09E838D833FC06F81788589859A85D4
:1012600020E03FEF4FE757E40E94C50318164CF506
:101270006B857C858D859E8520E030E040E251E4E1
:101280000E941F02DC01CB01BC01CD010E9449007C
:10129000DC01CB019E838D830FC088EC90E09C83A2
:1012A0008B838B819C810197F1F79C838B838D814C
:1012B0009E8101979E838D838D819E81009769F722
:1012C00014C06F81788589859A850E944900DC0168
:1012D000CB019E838D838D819E819A8389838981B1
:1012E0009A810197F1F79A8389838F858F5F8F8722
:1012F0008F85823008F472CF63960FB6F894DEBF04
:101300000FBECDBFCF91DF910895DF93CF93CDB7BF
:10131000DEB763970FB6F894DEBF0FBECDBF998BD3
:10132000888B7B8B6A8B1F861F8688C08F85282FB2
:1013300030E08A899B89A901480F591F8F85282F82
:1013400030E088899989280F391FCA01B9010E94A4
:10135000870F80E090E0A6E9B3E48B879C87AD8798
:10136000BE876B857C858D859E8520E030E04AEFC9
:1013700054E40E941F02DC01CB018F839887A98768
:10138000BA876F81788589859A8520E030E040E8CA
:101390005FE30E94250488232CF481E090E09E8383
:1013A0008D833FC06F81788589859A8520E03FEFE6
:1013B0004FE757E40E94C50318164CF56B857C85F2
:1013C0008D859E8520E030E040E251E40E941F02BE
:1013D000DC01CB01BC01CD010E944900DC01CB0145
:1013E0009E838D830FC088EC90E09C838B838B81E0
:1013F0009C810197F1F79C838B838D819E8101975E
:101400009E838D838D819E81009769F714C06F81C3
:10141000788589859A850E944900DC01CB019E83ED
:101420008D838D819E819A83898389819A81019799
:10143000F1F79A8389838F858F5F8F878F858230BD
:1014400008F474CF63960FB6F894DEBF0FBECDBF1D
:10145000CF91DF910895DF93CF93CDB7DEB7279774
:101460000FB6F894DEBF0FBECDBF9C838B837E8307
:101470006D8319821A821AC08A81282F30E08B81ED
:101480009C81FC01E20FF31F40818A81282F30E00C
:101490008D819E81FC01E20FF31F8081481719F4B2
:1014A00089818F5F89838A818F5F8A838A81823075
:1014B00018F399818A81981711F41F8202C081E084
:1014C0008F838F8127960FB6F894DEBF0FBECDBFF6
:1014D000CF91DF910895DF93CF9300D000D0CDB7A7
:1014E000DEB79A8389837C836B8389819A810E948A
:1014F000FA078B819C810E94FA0789819A812B814E
:101500003C81B9010E942B0A80936E0114C081E0D6
:101510000E94621689819A810E94FA078B819C81C0
:101520000E94FA0789819A812B813C81B9010E942E
:101530002B0A80936E0180916E01813041F380E02F
:101540000E9462168B819C8162E273E00E94DD083A
:101550000F900F900F900F90CF91DF910895DF9330
:10156000CF93CDB7DEB766970FB6F894DEBF0FBE48
:10157000CDBF988B8F877A8B698B8F8598890E94D6
:10158000FA0789899A8961E173E00E9485098F854C
:10159000988929893A89B9010E942B0A80936E01A2
:1015A00016C081E00E9462168F8598890E94FA0712
:1015B00089899A8961E173E00E9485098F859889FC
:1015C00029893A89B9010E942B0A80936E01809182
:1015D0006E01882331F780E00E9462160E9479161E
:1015E00080936F0180916F01282F30E03E8B2D8B0F
:1015F0008D899E8981309105E1F12D893E892230C6
:1016000031052CF48D899E89009771F0A2C12D8936
:101610003E892230310509F451C08D899E8984307C
:10162000910509F470C095C182E065E00E94BD118A
:10163000882321F481E00E94621603C080E00E94AA
:1016400062160E9479168093740180917401882338
:1016500021F480E00E94A70D7CC18091740181304B
:1016600021F480E00E94000E74C181E08093680143
:1016700070C182E064E00E94BD11882321F481E002
:101680000E94621603C080E00E9462160E947916D2
:101690008093740180917401882321F481E00E9479
:1016A000A70D57C180917401813021F481E00E941F
:1016B000000E4FC181E0809368014BC182E063E07E
:1016C0000E94BD11882321F481E00E94621603C0AC
:1016D00080E00E9462160E947916809374018091C6
:1016E0007401882321F482E00E94A70D32C1809109
:1016F0007401813021F482E00E94000E2AC181E051
:101700008093680126C10E94791680936F018091B1
:101710006F01282F30E03C8B2B8B8B899C89853087
:10172000910589F12B893C892630310509F450C097
:101730008B899C898330910509F00BC182E062E0BE
:101740000E94BD11882321F481E00E94621603C02B
:1017500080E00E9462160E94791680937401809145
:101760007401882321F483E00E94A70DF2C08091C8
:101770007401813021F483E00E94000EEAC081E010
:1017800080936801E6C082E066E00E94BD11882374
:1017900021F481E00E94621603C080E00E9462167C
:1017A0000E9479168093740180917401882321F43A
:1017B00085E00E94A70DCDC080917401813021F495
:1017C00085E00E94000EC5C081E080936801C1C021
:1017D0000E947916883009F090C00E94E913809326
:1017E0007001809170010E946216809170018233B5
:1017F00008F47DC083E062E041E00E94D21080E006
:1018000090E0AAEFB4E48B879C87AD87BE876B8599
:101810007C858D859E8520E030E04AEF54E40E946F
:101820001F02DC01CB018F839887A987BA876F815C
:10183000788589859A8520E030E040E85FE30E9462
:10184000250488232CF481E090E09E838D833FC0A3
:101850006F81788589859A8520E03FEF4FE757E4CF
:101860000E94C50318164CF56B857C858D859E8579
:1018700020E030E040E251E40E941F02DC01CB0195
:10188000BC01CD010E944900DC01CB019E838D8308
:101890000FC088EC90E09C838B838B819C810197A7
:1018A000F1F79C838B838D819E8101979E838D832D
:1018B0008D819E81009769F714C06F817885898535
:1018C0009A850E944900DC01CB019E838D838D8126
:1018D0009E819A83898389819A810197F1F79A83FE
:1018E000898383E062E040E00E94D21032C083E04E
:1018F00062E040E00E94D2102CC082E067E00E94CB
:10190000BD11882321F481E00E94621603C080E0AB
:101910000E9462160E94791680937401809174016E
:10192000882341F486E00E94A70D81E064E60E94CE
:10193000E40E0FC080917401813041F486E00E9472
:10194000000E80E060E00E94E40E03C081E080931E
:10195000680180916801813009F040CE66960FB62B
:10196000F894DEBF0FBECDBFCF91DF910895DF9316
:10197000CF9300D000D000D0CDB7DEB79A83898353
:101980007C836B8389819A810E94FA078B819C8179
:1019900062E273E00E94850989819A812B813C81F2
:1019A000B9010E942B0A80936E0116C081E00E944B
:1019B000621689819A810E94FA078B819C8162E27A
:1019C00073E00E94850989819A812B813C81B9014C
:1019D0000E942B0A80936E0180916E01882331F75B
:1019E00080E00E9462160E94791680936F018091B8
:1019F0006F01282F30E03E832D838D819E818130C1
:101A00009105C9F12D813E81223031052CF48D8163
:101A10009E81009771F092C02D813E812230310568
:101A200009F44BC08D819E818330910509F466C015
:101A300085C082E065E00E94BD11882321F481E029
:101A40000E94621603C080E00E9462160E9479160E
:101A50008093740180917401882321F480E00E94B6
:101A6000A70D6CC080917401813009F067C080E0DF
:101A70000E94000E63C082E064E00E94BD118823D2
:101A800021F481E00E94621603C080E00E94621689
:101A90000E9479168093740180917401882321F447
:101AA00081E00E94A70D4AC080917401813009F045
:101AB00045C081E00E94000E41C082E063E00E94C8
:101AC000BD11882321F481E00E94621603C080E0EA
:101AD0000E9462160E9479168093740180917401AD
:101AE000882321F482E00E94A70D28C08091740110
:101AF000813021F582E00E94000E20C082E062E089
:101B00000E94BD11882321F481E00E94621603C067
:101B100080E00E9462160E94791680937401809181
:101B20007401882321F483E00E94A70D07C08091EF
:101B30007401813019F483E00E94000E26960FB6DE
:101B4000F894DEBF0FBECDBFCF91DF910895DF9334
:101B5000CF9300D00F92CDB7DEB789838981282F2C
:101B600030E03B832A838A819B818230910559F141
:101B70002A813B812330310554F48A819B8100976F
:101B8000B1F02A813B8121303105B9F033C08A811F
:101B90009B818530910519F12A813B8126303105E1
:101BA00021F18A819B818330910599F023C082E0E5
:101BB00065E041E00E94D2101DC082E064E041E097
:101BC0000E94D21017C082E063E041E00E94D21070
:101BD00011C082E062E041E00E94D2100BC082E0BE
:101BE00066E041E00E94D21005C082E067E041E07B
:101BF0000E94D2100F900F900F90CF91DF91089517
:101C0000DF93CF9300D00F92CDB7DEB78983898160
:101C1000282F30E03B832A838A819B818230910583
:101C200059F12A813B812330310554F48A819B810B
:101C30000097B1F02A813B8121303105B9F033C0E2
:101C40008A819B818530910519F12A813B8126305B
:101C5000310521F18A819B818330910599F023C060
:101C600082E065E040E00E94D2101DC082E064E0A6
:101C700040E00E94D21017C082E063E040E00E9482
:101C8000D21011C082E062E040E00E94D2100BC08E
:101C900082E066E040E00E94D21005C082E067E08A
:101CA00040E00E94D2100F900F900F90CF91DF91E3
:101CB0000895DF93CF9300D0CDB7DEB789836A83D1
:101CC00089816A8141E00E94D21082E065E041E0B2
:101CD0000E94D2100F900F90CF91DF910895DF9363
:101CE000CF9300D0CDB7DEB79A838983A7E2B0E067
:101CF000E981FA8180818295880F880F807C8C939E
:101D0000A7E2B0E0E7E2F0E08081807E8C93E6E23B
:101D1000F0E0808180688083E6E2F0E08081877F68
:101D20008083A6E2B0E0E6E2F0E09081E981FA810A
:101D30008181886F89238C930F900F90CF91DF91D1
:101D40000895DF93CF930F92CDB7DEB78983A7E2D3
:101D5000B0E0E7E2F0E08081982F89818770892BDD
:101D60008C93E6E2F0E0808180648083E6E2F0E03C
:101D7000808180718823D1F3E6E2F0E080818F7E5C
:101D80008083E4E2F0E0808191810F90CF91DF9138
:101D90000895DF93CF93CDB7DEB783E065E041E0F0
:101DA0000E94E70F83E066E041E00E94E70F83E0D6
:101DB00065E040E00E94D21083E066E040E00E94CF
:101DC000D210CF91DF910895DF93CF9300D000D050
:101DD000CDB7DEB789836A838981282F30E03C83C1
:101DE0002B838B819C818130910551F02B813C812B
:101DF0002230310581F08B819C810097B9F020C0A1
:101E000083E065E040E00E94D21083E066E041E0BC
:101E10000E94D21015C083E065E041E00E94D2101C
:101E200083E066E040E00E94D2100AC083E065E0F3
:101E300040E00E94D21083E066E040E00E94D210B1
:101E40008A810E9451140F900F900F900F90CF91A4
:101E5000DF910895DF93CF93CDB7DEB780E89AE1A5
:101E6000A6E0B0E08093770190937801A093790188
:101E7000B0937A0110927B0182E080937C0187E726
:101E800091E00E942513CF91DF910895DF93CF93C6
:101E900000D000D0CDB7DEB79A8389836B830E94D0
:101EA00082130E94DA13883011F01C8228C08981C5
:101EB0009A8180709770880F892F881F990B919550
:101EC000806A0E949D130E94DA13883111F01C82EF
:101ED00016C089810E949D130E94DA13883211F086
:101EE0001C820DC08B810E949D130E94DA138832E0
:101EF00011F01C8204C00E94921381E08C838C81BB
:101F00000F900F900F900F90CF91DF910895DF9376
:101F1000CF9300D000D00F92CDB7DEB79A838983DC
:101F20007C836B830E9482130E94DA13883011F045
:101F30001D8244C089819A8180709770880F892F93
:101F4000881F990B9195806A0E949D130E94DA1355
:101F5000883111F01D8232C089810E949D130E9438
:101F6000DA13883211F01D8229C00E9482130E9468
:101F7000DA13803111F01D8221C089819A8180702D
:101F80009770880F892F881F990B9195816A0E94FD
:101F90009D130E94DA13803411F01D820FC00E943D
:101FA000C713EB81FC8180830E94DA13883511F01E
:101FB0001D8204C00E94921381E08D838D810F9059
:101FC0000F900F900F900F90CF91DF910895DF93B6
:101FD000CF9300D000D00F92CDB7DEB789836A834C
:101FE0004B838A81883008F0D5C08981843008F01D
:101FF000D1C08981282F30E03D832C838C819D8145
:102000008130910509F443C02C813D812230310596
:102010002CF48C819D81009771F0BCC02C813D8196
:102020002230310509F45FC08C819D818330910598
:1020300009F485C0AFC08B818130A1F4AAE3B0E080
:10204000EAE3F0E08081482F8A81282F30E081E0A8
:1020500090E0022E02C0880F991F0A94E2F7842BA9
:102060008C9398C0AAE3B0E0EAE3F0E08081482FC7
:102070008A81282F30E081E090E0022E02C0880F94
:10208000991F0A94E2F7809584238C9383C08B81F7
:102090008130A1F4A7E3B0E0E7E3F0E08081482FCE
:1020A0008A81282F30E081E090E0022E02C0880F64
:1020B000991F0A94E2F7842B8C936CC0A7E3B0E0DD
:1020C000E7E3F0E08081482F8A81282F30E081E02B
:1020D00090E0022E02C0880F991F0A94E2F78095C3
:1020E00084238C9357C08B818130A1F4A4E3B0E0AA
:1020F000E4E3F0E08081482F8A81282F30E081E0FE
:1021000090E0022E02C0880F991F0A94E2F7842BF8
:102110008C9340C0A4E3B0E0E4E3F0E08081482F7A
:102120008A81282F30E081E090E0022E02C0880FE3
:10213000991F0A94E2F7809584238C932BC08B819E
:102140008130A1F4A1E3B0E0E1E3F0E08081482F29
:102150008A81282F30E081E090E0022E02C0880FB3
:10216000991F0A94E2F7842B8C9314C0A1E3B0E08A
:10217000E1E3F0E08081482F8A81282F30E081E080
:1021800090E0022E02C0880F991F0A94E2F7809512
:1021900084238C930F900F900F900F900F90CF91FE
:1021A000DF910895DF93CF9300D000D00F92CDB789
:1021B000DEB789836A834B838A81883008F0D5C073
:1021C0008981843008F0D1C08981282F30E03D8397
:1021D0002C838C819D818130910509F443C02C8131
:1021E0003D81223031052CF48C819D81009771F066
:1021F000BCC02C813D812230310509F45FC08C8147
:102200009D818330910509F485C0AFC08B818130F9
:10221000A1F4ABE3B0E0EBE3F0E08081482F8A81EA
:10222000282F30E081E090E0022E02C0880F991F35
:102230000A94E2F7842B8C9398C0ABE3B0E0EBE315
:10224000F0E08081482F8A81282F30E081E090E003
:10225000022E02C0880F991F0A94E2F7809584230A
:102260008C9383C08B818130A1F4A8E3B0E0E8E3D4
:10227000F0E08081482F8A81282F30E081E090E0D3
:10228000022E02C0880F991F0A94E2F7842B8C93C8
:102290006CC0A8E3B0E0E8E3F0E08081482F8A81D9
:1022A000282F30E081E090E0022E02C0880F991FB5
:1022B0000A94E2F7809584238C9357C08B818130F8
:1022C000A1F4A5E3B0E0E5E3F0E08081482F8A8146
:1022D000282F30E081E090E0022E02C0880F991F85
:1022E0000A94E2F7842B8C9340C0A5E3B0E0E5E3C9
:1022F000F0E08081482F8A81282F30E081E090E053
:10230000022E02C0880F991F0A94E2F78095842359
:102310008C932BC08B818130A1F4A2E3B0E0E2E387
:10232000F0E08081482F8A81282F30E081E090E022
:10233000022E02C0880F991F0A94E2F7842B8C9317
:1023400014C0A2E3B0E0E2E3F0E08081482F8A818C
:10235000282F30E081E090E0022E02C0880F991F04
:102360000A94E2F7809584238C930F900F900F903E
:102370000F900F90CF91DF910895DF93CF9300D00E
:1023800000D00F92CDB7DEB78A836B8319828B8121
:10239000883008F084C08A81843008F080C08A8147
:1023A000282F30E03D832C834C815D8141305105E5
:1023B00079F18C819D818230910534F42C813D81AD
:1023C0002115310569F06BC04C815D8142305105AA
:1023D000B9F18C819D818330910509F449C05FC0BA
:1023E000E9E3F0E08081282F30E08B81882F90E0B6
:1023F000A90102C0559547958A95E2F7CA018170F7
:102400009070882319F081E0898349C0198247C000
:10241000E6E3F0E08081282F30E08B81882F90E088
:10242000A90102C0559547958A95E2F7CA018170C6
:102430009070882319F081E0898331C019822FC000
:10244000E3E3F0E08081282F30E08B81882F90E05B
:10245000A90102C0559547958A95E2F7CA01817096
:102460009070882319F081E0898319C0198217C000
:10247000E0E3F0E08081282F30E08B81882F90E02E
:10248000A90102C0559547958A95E2F7CA01817066
:102490009070882319F081E0898301C019828981B5
:1024A0000F900F900F900F900F90CF91DF910895A4
:1024B000DF93CF9300D000D0CDB7DEB789836A8396
:1024C0008981843090F58981282F30E03C832B83EB
:1024D0008B819C8181309105D1F02B813C81223010
:1024E00031052CF48B819C81009761F01EC02B81FB
:1024F0003C812230310581F08B819C8183309105B4
:1025000081F013C0EAE3F0E08A8180830EC0E7E344
:10251000F0E08A81808309C0E4E3F0E08A8180836F
:1025200004C0E1E3F0E08A8180830F900F900F9068
:102530000F90CF91DF910895DF93CF9300D000D01B
:10254000CDB7DEB789836A838981843090F589812C
:10255000282F30E03C832B838B819C818130910537
:10256000D1F02B813C81223031052CF48B819C8170
:10257000009761F01EC02B813C812230310581F033
:102580008B819C818330910581F013C0EBE3F0E0F7
:102590008A8180830EC0E8E3F0E08A81808309C0ED
:1025A000E5E3F0E08A81808304C0E2E3F0E08A8121
:1025B00080830F900F900F900F90CF91DF9108952F
:1025C000DF93CF9300D000D0CDB7DEB78A831982D6
:1025D0008A81843090F58A81282F30E03C832B83D8
:1025E0008B819C8181309105D1F02B813C812230FF
:1025F00031052CF48B819C81009761F01EC02B81EA
:102600003C812230310581F08B819C8183309105A2
:1026100081F013C0E9E3F0E0808189830EC0E6E336
:10262000F0E08081898309C0E3E3F0E08081898361
:1026300004C0E0E3F0E08081898389810F900F90EE
:102640000F900F90CF91DF910895EF92FF920F932B
:102650001F93DF93CF9300D000D0CDB7DEB79C831C
:102660008B83EB81FC81208131814281538180E029
:1026700092E1AAE7B0E0BC01CD010E941317DA0194
:10268000C9010F2EF0EFEF2EFFEFFF2EFFEF0F2F00
:10269000FFEF1F2FF02DE80EF91E0A1F1B1FEB8105
:1026A000FC818481882F90E0880F991F9C0144272A
:1026B00037FD4095542FC801B7010E941317DA0166
:1026C000C9019A838983E0E2F0E089818083A1E2F5
:1026D000B0E0EB81FC8184818C93A2E2B0E0EB81DD
:1026E000FC8185818C93E6E5F0E084E080830F90A7
:1026F0000F900F900F90CF91DF911F910F91FF904E
:10270000EF900895DF93CF93CDB7DEB7E6E5F0E025
:1027100084EA8083E6E5F0E080818823DCF7CF91CE
:10272000DF910895DF93CF93CDB7DEB7E6E5F0E014
:1027300084E98083CF91DF910895DF93CF930F9247
:10274000CDB7DEB78983E3E2F0E089818083E6E5F7
:10275000F0E084E88083E6E5F0E080818823DCF720
:102760000F90CF91DF910895DF93CF93CDB7DEB770
:10277000E6E5F0E084EC8083E6E5F0E08081882304
:10278000DCF7E3E2F0E08081CF91DF910895DF9301
:10279000CF93CDB7DEB7E6E5F0E084E88083E6E5E9
:1027A000F0E080818823DCF7E3E2F0E08081CF91E4
:1027B000DF910895DF93CF930F92CDB7DEB7E1E2BB
:1027C000F0E08081887F898389810F90CF91DF91AC
:1027D0000895DF93CF9300D00F92CDB7DEB71B8261
:1027E0001A82198280E00E94A10E9A8389838981CE
:1027F0009A81CC01A0E0B0E026E930E040E050E072
:10280000BC01CD010E94F416DC01CB01BC01CD015D
:102810000E94A904DC01CB01BC01CD012AE037ED07
:1028200043E250E40E941F02DC01CB01BC01CD0158
:1028300020E030ED4FEB54E40E941903DC01CB01A2
:10284000BC01CD010E944900DC01CB018B838B814F
:102850000F900F900F90CF91DF910895DF93CF935A
:10286000CDB7DEB7E2E5F0E0108281E063E041E061
:102870000E94E70FE3E5F0E0808180648083E3E578
:10288000F0E0808188608083E3E5F0E08081806211
:102890008083E3E5F0E0808182608083CF91DF91E7
:1028A0000895DF93CF930F92CDB7DEB78983ECE520
:1028B000F0E0898180830F90CF91DF910895DF93BD
:1028C000CF93CDB7DEB781E064E041E00E94E70F2F
:1028D00081E065E041E00E94E70F81E066E040E0D2
:1028E0000E94E70F81E067E041E00E94E70FEDE220
:1028F000F0E080E58083AEE2B0E0EEE2F0E08081DF
:102900008E7F8C93CF91DF910895DF93CF93CDB7D6
:10291000DEB781E064E040E00E94E70F81E065E01F
:1029200040E00E94E70F81E066E041E00E94E70F8F
:1029300081E067E040E00E94E70FEDE2F0E080E434
:102940008083AEE2B0E0EEE2F0E080818E7F8C9397
:10295000CF91DF910895DF93CF930F92CDB7DEB77C
:102960008983EFE2F0E089818083EEE2F0E080810C
:102970008823DCF7EFE2F0E080810F90CF91DF91C8
:102980000895DF93CF9300D000D0CDB7DEB79C83FE
:102990008B831A8219820FC08A81282F30E08B81A5
:1029A0009C81FC01E20FF31F80810E94AB1489839C
:1029B0008A818F5F8A838A81282F30E08B819C8176
:1029C000FC01E20FF31F8081882331F70F900F90F5
:1029D0000F900F90CF91DF9108950F931F93DF9386
:1029E000CF9300D00F92CDB7DEB79B838A83198235
:1029F0008981282F30E08A819B818C01020F131F6F
:102A00008AEA0E94AB14F801808310C089818F5F2D
:102A100089838981282F30E08A819B818C01020F74
:102A2000131F8AEA0E94AB14F80180838981282F42
:102A300030E08A819B81FC01E20FF31F80818332A9
:102A400029F78981282F30E08A819B81FC01E20FE0
:102A5000F31F10820F900F900F90CF91DF911F9175
:102A60000F9108951F920F920FB60F9211242F937A
:102A70003F934F935F936F937F938F939F93AF9306
:102A8000BF93EF93FF93DF93CF93CDB7DEB78091E2
:102A9000690190916A01009729F0E0916901F09134
:102AA0006A010995CF91DF91FF91EF91BF91AF91AD
:102AB0009F918F917F916F915F914F913F912F9156
:102AC0000F900FBE0F901F9018951F920F920FB688
:102AD0000F9211242F933F934F935F936F937F93A4
:102AE0008F939F93AF93BF93EF93FF93DF93CF9316
:102AF000CDB7DEB78091690190916A01009729F006
:102B0000E0916901F0916A010995CF91DF91FF9100
:102B1000EF91BF91AF919F918F917F916F915F9155
:102B20004F913F912F910F900FBE0F901F901895CE
:102B3000DF93CF9300D0CDB7DEB79A838983ACE41F
:102B4000B0E0E981FA818081918111969C938E9306
:102B5000AAE4B0E0E981FA818281938111969C9385
:102B60008E93EFE4F0E08CE08083AEE4B0E0EEE43E
:102B7000F0E08081282F277FE981FA818581882FE5
:102B800090E0880F991F880F991F880F991F822B3B
:102B90008C93AEE4B0E0EEE4F0E08081982F987F73
:102BA000E981FA8184818770892B8C93E981FA818C
:102BB0008581882341F4A9E5B0E0E9E5F0E0808172
:102BC00084608C9307C0A9E5B0E0E9E5F0E080817E
:102BD00080618C930F900F90CF91DF910895DF93D8
:102BE000CF93CDB7DEB7EFE4F0E01082EEE4F0E093
:102BF0001082ECE4F0E011821082E6E4F0E0118251
:102C00001082CF91DF910895DF93CF9300D0CDB79D
:102C1000DEB79A83898389819A8190936A01809330
:102C200069010F900F90CF91DF910895DF93CF93BB
:102C300000D000D000D0CDB7DEB76B837C838D830E
:102C40009E831A821982EBE2F0E082E08083EAE25E
:102C5000F0E088E18083E0E4F0E086E880838B8127
:102C60009C81AD81BE81880F991FAA1FBB1F880F51
:102C7000991FAA1FBB1F880F991FAA1FBB1F9C016A
:102C8000AD0180E092E1AAE7B0E0BC01CD010E9475
:102C90001317DA01C90101979A838983E0E4F0E010
:102CA00089819A81892F99278083E9E2F0E08981DF
:102CB000808326960FB6F894DEBF0FBECDBFCF91AE
:102CC000DF910895DF93CF930F92CDB7DEB789835D
:102CD000EBE2F0E08081882F90E0807290700097A6
:102CE000B9F3ECE2F0E0898180830F90CF91DF911E
:102CF0000895DF93CF93CDB7DEB7EBE2F0E08081AC
:102D00008823DCF7ECE2F0E08081CF91DF91089539
:102D1000DF93CF9300D00F92CDB7DEB79B838A832A
:102D200019820EC08981282F30E08A819B81FC01A5
:102D3000E20FF31F80810E94621689818F5F898371
:102D40008981282F30E08A819B81FC01E20FF31FEB
:102D50008081882339F70F900F900F90CF91DF91EA
:102D600008950F931F93DF93CF9300D00F92CDB7A9
:102D7000DEB79B838A8319828981282F30E08A817C
:102D80009B818C01020F131F0E947916F80180832A
:102D90000FC089818F5F89838981282F30E08A81E4
:102DA0009B818C01020F131F0E947916F80180830A
:102DB0008981282F30E08A819B81FC01E20FF31F7B
:102DC0008081833231F78981282F30E08A819B818D
:102DD000FC01E20FF31F10820F900F900F90CF9124
:102DE000DF911F910F910895629FD001739FF001B1
:102DF000829FE00DF11D649FE00DF11D929FF00D8B
:102E0000839FF00D749FF00D659FF00D9927729FC1
:102E1000B00DE11DF91F639FB00DE11DF91FBD014C
:102E2000CF0111240895A1E21A2EAA1BBB1BFD019C
:102E30000DC0AA1FBB1FEE1FFF1FA217B307E40799
:102E4000F50720F0A21BB30BE40BF50B661F771FF1
:102E5000881F991F1A9469F76095709580959095D1
:102E60009B01AC01BD01CF0108952F923F924F927B
:102E70005F926F927F928F929F92AF92BF92CF920A
:102E8000DF92EF92FF920F931F93CF93DF93CDB713
:102E9000DEB7CA1BDB0B0FB6F894DEBF0FBECDBF8B
:102EA00009942A88398848885F846E847D848C845C
:102EB0009B84AA84B984C884DF80EE80FD800C8165
:102EC0001B81AA81B981CE0FD11D0FB6F894DEBF48
:0C2ED0000FBECDBFED010895F894FFCFB8
:102EDC0000000000000000000001020203030303D5
:102EEC00040404040404040405050505050505058E
:102EFC00050505050505050506060606060606066E
:102F0C000606060606060606060606060606060655
:102F1C00060606060606060607070707070707073D
:102F2C000707070707070707070707070707070725
:102F3C000707070707070707070707070707070715
:102F4C000707070707070707070707070707070705
:102F5C0007070707070707070808080808080808ED
:102F6C0008080808080808080808080808080808D5
:102F7C0008080808080808080808080808080808C5
:102F8C0008080808080808080808080808080808B5
:102F9C0008080808080808080808080808080808A5
:102FAC000808080808080808080808080808080895
:102FBC000808080808080808080808080808080885
:102FCC000808080808080808080808080808080875
:082FDC000808080808080808AD
:00000001FF
