:100000000C942A000C9447000C9447000C94470071
:100010000C9447000C9447000C9447000C94D02D8E
:100020000C9447000C949D2D0C9447000C944700B1
:100030000C9447000C9447000C9447000C94470024
:100040000C9447000C9447000C9447000C94470014
:100050000C94470011241FBECFE5D8E0DEBFCDBF12
:1000600013E0A0E6B0E0E0E7F2E602C005900D92F2
:10007000A438B107D9F713E0A4E8B3E001C01D929A
:10008000AD38B107E1F70E94970C0C9436310C940F
:100090000000EF92FF920F93DF93CF93CDB7DEB7BF
:1000A00060970FB6F894DEBF0FBECDBFA82F002318
:1000B00009F461C07E010894E11CF11C88E0F7019D
:1000C00011928A95E9F729833A834B835C836D8388
:1000D0007E83AF83988780E2801BE82FFF27E7FDB0
:1000E000F09549815A816B817C81181684F01986BC
:1000F0001A861B861C86882799278E1B9F0B04C097
:10010000440F551F661F771F8A95D2F728C0202FEE
:10011000332727FD3095DB01CA01022E04C0880F6A
:10012000991FAA1FBB1F0A94D2F789879A87AB87AA
:10013000BC8704C07695679557954795EA95D2F7A1
:100140008D819E81AF81B88504C0880F991FAA1F39
:10015000BB1F2A95D2F7482B592B6A2B7B2B4D8737
:100160005E876F87788B29853A854B855C856D85A1
:100170007E85AF8598898A2F60960FB6F894DEBF8A
:100180000FBECDBFCF91DF910F91FF90EF900895FB
:10019000EF92FF920F931F937B018C0120E030E0E0
:1001A00040E05FE40E943D0A88238CF0C801B7015B
:1001B00020E030E040E05FE40E94B5080E949D0A24
:1001C0009B01AC01205030404040504806C0C8015F
:1001D000B7010E949D0A9B01AC01B901CA011F91A0
:1001E0000F91FF90EF900895AEE5B0E0EAEFF0E0F8
:1001F0000C94BA30A8E04E010894811C911CF401C3
:100200006A2E11926A94E9F729833A834B835C83BF
:100210006D837E838F839887CE010996FC011192AE
:10022000AA95E9F7A986BA86CB86DC86ED86FE8696
:100230000F87188B29843A844B845C84ED84FE8478
:100240000F85188969807A808B809C806DA67EA638
:100250008FA698AA6D807E808F809884E114F10427
:100260000105110509F0B3C36214730484049504F5
:1002700008F03DC100E0201600E0300601E0400635
:1002800000E0500688F41FEF2116310441045104A8
:1002900039F030F048E0E42EF12C012D112D18C07A
:1002A000EE24FF24870114C020E0221620E032064D
:1002B00020E0420621E0520630F038E1E32EF12C36
:1002C000012D112D05C020E1E22EF12C012D112D63
:1002D000D201C1010E2C04C0B695A79597958795BC
:1002E0000A94D2F782589D4FDC012C9180E290E075
:1002F000A0E0B0E08E199F09A00BB10B7C018D012D
:10030000E21AF10801091109E114F10401051105CE
:10031000A1F10E2C04C0220C331C441C551C0A9461
:10032000D2F7A40193010E2C04C0220F331F441FE7
:10033000551F0A94D2F780E290E08E199F096DA4B0
:100340007EA48FA498A804C0969487947794679409
:100350008A95D2F7622A732A842A952AADA4BEA46C
:10036000CFA4D8A804C0AA0CBB1CCC1CDD1CEA94EA
:10037000D2F7ADA6BEA6CFA6D8AA6201EE24FF246E
:10038000CDAADEAAEFAAF8AE9201810120703070EA
:1003900009AF1AAF2BAF3CAFC401B301A70196015F
:1003A0000E9479307B018C01C401B3012DA93EA9C3
:1003B0004FA958AD0E947930C901DA013C014D01C5
:1003C000C401B30129AD3AAD4BAD5CAD0E949B3089
:1003D0009B01AC018701FF24EE24ADA4BEA4CFA4F1
:1003E000D8A8C601AA27BB2757016801A82AB92A9D
:1003F000CA2ADB2AA216B306C406D506E0F408947E
:100400006108710881089108A20CB31CC41CD51C9A
:10041000A214B304C404D50470F0A216B306C40633
:10042000D50648F408946108710881089108A20C67
:10043000B31CC41CD51CA21AB30AC40AD50AC6012F
:10044000B5012DA93EA94FA958AD0E9479307B0175
:100450008C01C601B5012DA93EA94FA958AD0E9436
:100460007930C901DA015C016D01C601B50129AD20
:100470003AAD4BAD5CAD0E949B309B01AC01870156
:10048000FF24EE248DA59EA5AFA5B8A9A070B070DD
:10049000E82AF92A0A2B1B2BE216F3060407150794
:1004A000C0F40894A108B108C108D108E20CF31CFB
:1004B000041D151DE214F3040405150550F0E216A1
:1004C000F3060407150728F40894A108B108C10829
:1004D000D108D3019927882786017501E82AF92ACE
:1004E0000A2B1B2BE9AAFAAA0BAB1CABCFC4211415
:1004F00031044104510471F461E070E080E090E067
:1005000020E030E040E050E00E947930C901DA019B
:100510001C012D0100E0201600E0300601E040063D
:1005200000E0500688F41FEF211631044104510405
:1005300031F028F048E050E060E070E017C040E0A3
:1005400050E060E070E012C020E0221620E03206A9
:1005500020E0420621E0520628F048E150E060E049
:1005600070E004C040E150E060E070E0D201C10101
:10057000042E04C0B695A795979587950A94D2F74F
:1005800082589D4FDC012C91E0E2EE2EF12C012DE2
:10059000112DD801C701841B950BA60BB70B821B2D
:1005A0009109A109B1090097A105B10561F46401A0
:1005B0005301A218B308C408D50831E0632E712C8A
:1005C000812C912C1EC16F968FAF6F97082E04C09F
:1005D000220C331C441C551C0A94D2F7EE2DE81B48
:1005E000640153010E2E04C0D694C794B794A79407
:1005F0000A94D2F7A40193016F960FAC6F9704C0D1
:10060000220F331F441F551F0A94D2F76DA47EA4F6
:100610008FA498A80E2E04C096948794779467941C
:100620000A94D2F784017301E22AF32A042B152BD2
:10063000E9A6FAA60BA71CA73201882499249201E7
:1006400081012070307021960CAF1DAF2EAF3FAFEF
:100650002197C601B501A40193010E9479307B0165
:100660008C01C601B501A40193010E947930C90132
:10067000DA0125968CAF9DAFAEAFBFAF2597BC0119
:10068000CD0121962CAD3DAD4EAD5FAD21970E94C1
:100690009B309B01AC018701FF24EE24A9A4BAA4DE
:1006A000CBA4DCA4C601AA27BB275C016D01AE2840
:1006B000BF28C02AD12AA216B306C406D50660F503
:1006C00025966CAD7DAD8EAD9FAD25976150704088
:1006D0008040904025966CAF7DAF8EAF9FAF259741
:1006E000A20CB31CC41CD51CA214B304C404D504AE
:1006F00098F0A216B306C406D50670F46150704097
:100700008040904025966CAF7DAF8EAF9FAF259710
:10071000A20CB31CC41CD51CA21AB30AC40AD50A65
:10072000C601B501A40193010E9479307B018C01BF
:10073000C601B501A40193010E947930C901DA0113
:100740003C014D01C401B30121962CAD3DAD4EAD30
:100750005FAD21970E949B309B01AC018701FF2474
:10076000EE2489A59AA5ABA5BCA5A070B0705701D1
:100770006801A82AB92ACA2ADB2AA216B306C40627
:10078000D506E0F408946108710881089108A20C6C
:10079000B31CC41CD51CA214B304C404D50470F04B
:1007A000A216B306C406D50648F408946108710879
:1007B00081089108A20CB31CC41CD51C8DA59EA554
:1007C000AFA5B8A96F960FAC6F9704C0880F991F9B
:1007D000AA1FBB1F0A94D2F78DA79EA7AFA7B8ABDD
:1007E000A21AB30AC40AD50A2596ECACFDAC0EAD2C
:1007F0001FAD2597D70199278827682A792A8A2A41
:100800009B2A82012227332729960CAF1DAF2EAFDA
:100810003FAF2997A2019101407050702D962CAFE7
:100820003DAF4EAF5FAF2D97C601B50129962CADF8
:100830003DAD4EAD5FAD29970E9479307B018C01B3
:10084000C601B50129962CAD3DAD4EAD5FAD2997E2
:100850000E947930C901DA0161968CAF9DAFAEAFCD
:10086000BFAF6197BC01CD012D962CAD3DAD4EAD16
:100870005FAD2D970E949B309B01AC018701FF2447
:10088000EE24ADA4BEA4CFA4D8A8C601AA27BB2736
:1008900057016801A82AB92ACA2ADB2AA216B30678
:1008A000C406D50660F561966CAD7DAD8EAD9FAD8D
:1008B0006197615070408040904061966CAF7DAF11
:1008C0008EAF9FAF6197A20CB31CC41CD51CA214A1
:1008D000B304C404D50498F0A216B306C406D50622
:1008E00070F4615070408040904061966CAF7DAF75
:1008F0008EAF9FAF6197A20CB31CC41CD51CA21A6B
:10090000B30AC40AD50AC601B50129962CAD3DAD7E
:100910004EAD5FAD29970E9479307B018C01C601F5
:10092000B50129962CAD3DAD4EAD5FAD29970E9426
:100930007930C901DA015C016D01C601B5012D965E
:100940002CAD3DAD4EAD5FAD2D970E949B309B0110
:10095000AC018701FF24EE248DA59EA5AFA5B8A903
:10096000A070B070E82AF92A0A2B1B2BE216F306B6
:1009700004071507C0F40894A108B108C108D108FC
:10098000E20CF31C041D151DE214F3040405150507
:1009900050F0E216F3060407150728F40894A1089E
:1009A000B108C108D1086196ECACFDAC0EAD1FAD2D
:1009B0006197D7019927882796018501082B192B64
:1009C0002A2B3B2B09AB1AAB2BAB3CAB62C26E1490
:1009D0007F048006910608F451C220E0E21620E070
:1009E000F20621E0020720E0120788F43FEFE31649
:1009F000F1040105110531F028F048E050E060E015
:100A000070E017C040E050E060E070E012C040E0ED
:100A1000E41640E0F40640E0040741E0140728F043
:100A200048E150E060E070E004C040E150E060E088
:100A300070E0D801C701042E04C0B695A79597951C
:100A400087950A94D2F782589D4FDC012C9130E2B1
:100A5000A32EB12CC12CD12CD601C501841B950B22
:100A6000A60BB70B821B9109A109B1090097A1053B
:100A7000B10589F4E614F7040805190508F4F2C174
:100A80006DA47EA48FA498A86214730484049504B2
:100A900008F0E8C1F3C16E968FAF6E97082E04C0C0
:100AA000EE0CFF1C001F111F0A94D2F76A2D681B61
:100AB000D201C101062E04C0B695A79597958795DA
:100AC0000A94D2F75C016D01AE28BF28C02AD12A52
:100AD000ADA2BEA2CFA2D8A6720161016E960FACE4
:100AE0006E9704C0CC0CDD1CEE1CFF1C0A94D2F7E0
:100AF000C9A2DAA2EBA2FCA264015301062E04C033
:100B0000D694C794B794A7940A94D2F7D401C3019A
:100B10006E960FAC6E9704C0880F991FAA1FBB1F5B
:100B20000A94D2F7EDA4FEA40FA518A904C0169547
:100B30000795F794E7946A95D2F737014801682A38
:100B4000792A8A2A9B2A6D8E7E8E8F8E98A2EDA09E
:100B5000FEA00FA118A538018824992498018701C7
:100B60002070307065960CAF1DAF2EAF3FAF65970C
:100B7000C601B501A40193010E9479307B018C016B
:100B8000C601B501A40193010E947930C901DA01BF
:100B90001C012D01C201B10165962CAD3DAD4EADDC
:100BA0005FAD65970E949B309B01AC018701FF24DC
:100BB000EE24AD8CBE8CCF8CD8A0C601AA27BB2753
:100BC00057016801A82AB92ACA2ADB2AA216B30645
:100BD000C406D50600F508942108310841085108DB
:100BE000EDA0FEA00FA118A5AE0CBF1CC01ED11E0B
:100BF000AE14BF04C006D10670F0A216B306C40638
:100C0000D50648F408942108310841085108AE0C73
:100C1000BF1CC01ED11EA21AB30AC40AD50AC6013F
:100C2000B501A40193010E9479307B018C01C601BA
:100C3000B501A40193010E947930C901DA013C0198
:100C40004D01C401B30165962CAD3DAD4EAD5FAD18
:100C500065970E949B309B01AC018701FF24EE2425
:100C60008D8D9E8DAF8DB8A1A070B07057016801B9
:100C7000A82AB92ACA2ADB2AA216B306C406D506B0
:100C800000F5089461087108810891086DA17EA1A2
:100C90008FA198A5A60EB71EC81ED91EA616B70608
:100CA000C806D90670F0A216B306C406D50648F4E5
:100CB00008946108710881089108A60EB71EC81E25
:100CC000D91ED601C501821B930BA40BB50B898FCE
:100CD0009A8FAB8FBC8FD10199278827640153016C
:100CE000A82AB92ACA2ADB2AA9AABAAACBAADCAAA4
:100CF000860175012FEF3FEF40E050E0E222F32242
:100D000004231523A601662777276D964CAF5DAFA8
:100D10006EAF7FAF6D97A9A0BAA0CBA0DCA06FEF9C
:100D20007FEF80E090E0A622B722C822D92289A1D5
:100D30009AA1ABA1BCA11D0144245524C801B7014F
:100D4000A60195010E949B3069966CAF7DAF8EAF76
:100D50009FAF6997C801B701A20191010E949B3022
:100D60003B014C016D966CAD7DAD8EAD9FAD6D9729
:100D7000A60195010E949B307B018C016D966CADA4
:100D80007DAD8EAD9FAD6D97A20191010E949B300C
:100D90005B016C01A8019701260D371D481D591DE7
:100DA00069966CAC7DAC8EAC9FAC6997C401AA27E8
:100DB000BB27280F391F4A1F5B1F2E153F05400711
:100DC000510748F4E12CF12C61E0062F112DAE0CF7
:100DD000BF1CC01ED11ECA01AA27BB27BC01CD0162
:100DE0006A0D7B1D8C1D9D1D698C7A8C8B8C9C8C57
:100DF000661677068806990640F166157705880518
:100E0000990509F043C0D9019927882769962CAD27
:100E10003DAD4EAD5FAD699740705070820F931F2E
:100E2000A41FB51F2DA53EA54FA558A96E960FACC2
:100E30006E9704C0220F331F441F551F0A94D2F728
:100E4000281739074A075B0708F509A91AA92BA92A
:100E50003CA9015010402040304009AB1AAB2BABED
:100E60003CAB14C066247724430121E030E040E02D
:100E700050E029AB3AAB4BAB5CAB0BC0662477249C
:100E8000430119AA1AAA1BAA1CAA03C06624772424
:100E90004301FE01719688E0DF011D928A95E9F712
:100EA000A9A8BAA8CBA8DCA8A98ABA8ACB8ADC8A66
:100EB0006D8A7E8A8F8A988E29A93A894B895C89A6
:100EC000662D7E898F89988DC25ADF4FE2E10C949E
:100ED000D630A0E0B0E0EFE6F7E00C94BA30DC01E9
:100EE0002B01FA019C91923008F439C1EB01888101
:100EF000823008F433C1943069F4843009F02FC192
:100F000011969C9111978981981709F428C1A6E739
:100F1000B2E025C1843009F421C18230A9F49230B5
:100F200009F01DC19A01AD0188E0EA010990AE0106
:100F3000E90109929E018150C1F7E2018981119670
:100F40009C918923818308C1923009F407C11296CC
:100F50002D903C901397EB018A819B811496AD9064
:100F6000BD90CD90DC901797EC80FD800E811F81A5
:100F70009101281B390BB90137FF04C06627772779
:100F8000621B730B603271050CF061C01216130600
:100F90006CF537014801062E04C096948794779427
:100FA00067940A94D2F721E030E040E050E004C0BA
:100FB000220F331F441F551F6A95D2F7215030402E
:100FC000404050402E213F2140235123211531051F
:100FD0004105510521F021E030E040E050E0790189
:100FE0008A01E628F728082919293CC0232BD1F1CA
:100FF000260E371E35014601062E04C096948794AE
:10100000779467940A94D2F721E030E040E050E012
:1010100004C0220F331F441F551F6A95D2F7215079
:101020003040404050402A213B214C215D21211578
:1010300031054105510521F021E030E040E050E06C
:1010400059016A01A628B728C828D9280BC08215DB
:1010500093052CF01C01AA24BB24650103C0EE24D7
:10106000FF24870111969C91D20111968C919817BB
:1010700009F445C0992339F0A80197012A193B09C1
:101080004C095D0906C0A60195012E193F09400BC8
:10109000510B57FD08C0118233822282248335838D
:1010A000468357831DC081E0818333822282882753
:1010B0009927DC01821B930BA40BB50B84839583CA
:1010C000A683B7830DC0220F331F441F551F2483EF
:1010D00035834683578382819381019793838283EB
:1010E0002481358146815781DA01C9010197A1091F
:1010F000B1098F5F9F4FAF4FBF4328F30BC0918360
:1011000033822282EA0CFB1C0C1D1D1DE482F58239
:101110000683178383E0808324813581468157814C
:1011200057FF1AC0C901AA2797FDA095BA2F817051
:101130009070A070B0705695479537952795822B83
:10114000932BA42BB52B84839583A683B7838281AD
:101150009381019693838283DF0101C0D201CD0187
:10116000CDB7DEB7E2E10C94D630A0E2B0E0EBEB15
:10117000F8E00C94C63069837A838B839C832D833B
:101180003E834F835887E9E0EE2EF12CEC0EFD1ED6
:10119000CE010196B7010E94C60B8E010F5E1F4F54
:1011A000CE010596B8010E94C60B8A8991E0892775
:1011B0008A8BC701B801AE01475E5F4F0E94690785
:1011C0000E94F10AA096E6E00C94E230A0E2B0E0C2
:1011D000ECEEF8E00C94C63069837A838B839C83B1
:1011E0002D833E834F835887F9E0EF2EF12CEC0ED0
:1011F000FD1ECE010196B7010E94C60B8E010F5E47
:101200001F4FCE010596B8010E94C60BC701B80159
:10121000AE01475E5F4F0E9469070E94F10AA096E7
:10122000E6E00C94E230A0E2B0E0E9E1F9E00C94F1
:10123000BA3069837A838B839C832D833E834F836B
:101240005887CE010196BE01675F7F4F0E94C60B93
:10125000CE010596BE016F5E7F4F0E94C60B998539
:10126000923088F089898230C8F0943019F4823045
:1012700051F404C0843029F4923081F486E792E07E
:10128000C6C0923049F420E09A858A89981321E0FB
:101290002A87CE010996BBC0823049F420E09A85A6
:1012A0008A89981321E02A8BCE014196B0C02D8403
:1012B0003E844F8458886D887E888F88988CEE2471
:1012C000FF248701AA24BB24650140E050E060E0D0
:1012D00070E0E0E0F0E0C10181709070892BE9F0EE
:1012E000E60CF71C081D191D9A01AB012A0D3B1DC8
:1012F0004C1D5D1D80E090E0A0E0B0E0E614F70436
:101300000805190520F481E090E0A0E0B0E0BA0102
:10131000A901480F591F6A1F7B1FAA0CBB1CCC1CBC
:10132000DD1C97FE08C081E090E0A0E0B0E0A82AB4
:10133000B92ACA2ADB2A3196E032F10549F0660C57
:10134000771C881C991C5694479437942794C3CFD4
:10135000FA85EA892B893C898B859C85280F391F62
:101360002E5F3F4F17C0CA0181709070892B61F0CA
:1013700016950795F794E79480E090E0A0E0B0E838
:10138000E82AF92A0A2B1B2B7695679557954795DE
:101390002F5F3F4F77FDE7CF0CC0440F551F661FEF
:1013A000771F17FD4160EE0CFF1C001F111F21501D
:1013B0003040403090E0590790E0690790E47907A9
:1013C00060F32B8F3C8FDB01CA018F779070A07088
:1013D000B07080349105A105B10561F447FD0AC0E4
:1013E000E114F1040105110529F0405C5F4F6F4FD6
:1013F0007F4F40781A8EFE1711F081E08A8F4D8F53
:101400005E8F6F8F78A383E0898FCE0149960E940B
:10141000F10AA096E2E10C94D630A8E1B0E0E3E155
:10142000FAE00C94C63069837A838B839C832D8386
:101430003E834F83588789E0E82EF12CEC0EFD1E89
:10144000CE010196B7010E94C60B8E010F5E1F4FA1
:10145000CE010596B8010E94C60B8985823040F006
:101460008989823028F0C701B8010E943E0C01C072
:101470008FEF6896E6E00C94E230A8E1B0E0E3E498
:10148000FAE00C94C63069837A838B839C832D8326
:101490003E834F83588789E0E82EF12CEC0EFD1E29
:1014A000CE010196B7010E94C60B8E010F5E1F4F41
:1014B000CE010596B8010E94C60B8985823040F0A6
:1014C0008989823028F0C701B8010E943E0C01C012
:1014D0008FEF6896E6E00C94E230A8E1B0E0E3E735
:1014E000FAE00C94C63069837A838B839C832D83C6
:1014F0003E834F83588789E0E82EF12CEC0EFD1EC9
:10150000CE010196B7010E94C60B8E010F5E1F4FE0
:10151000CE010596B8010E94C60B8985823040F045
:101520008989823028F0C701B8010E943E0C01C0B1
:1015300081E06896E6E00C94E230ACE0B0E0E3EAEB
:10154000FAE00C94CA3069837A838B839C83CE0142
:101550000196BE016B5F7F4F0E94C60B8D8182306A
:1015600061F1823050F1843021F48E81882351F171
:101570002EC02F81388537FD20C06E812F31310577
:101580001CF06623F9F023C08EE190E0821B930BE0
:1015900029853A854B855C8504C0569547953795D6
:1015A00027958A95D2F76623B1F0509540953095EE
:1015B00021953F4F4F4F5F4F0EC020E030E040E09D
:1015C00050E009C02FEF3FEF4FEF5FE704C020E08E
:1015D00030E040E050E8B901CA012C96E2E00C94FA
:1015E000E630DF92EF92FF920F931F93FC01E480AD
:1015F000F58006811781D1808081823048F480E0B7
:1016000090E0A0E1B0E0E82AF92A0A2B1B2BA5C044
:10161000843009F49FC0823021F4EE24FF24870136
:1016200005C0E114F1040105110519F4E0E0F0E052
:1016300096C0628173819FEF623879070CF05BC0BE
:1016400022E83FEF261B370B2A3131052CF020E032
:1016500030E040E050E02AC0B801A701022E04C0EB
:1016600076956795579547950A94D2F781E090E073
:10167000A0E0B0E004C0880F991FAA1FBB1F2A95E5
:10168000D2F70197A109B1098E219F21A023B1238F
:101690000097A105B10521F081E090E0A0E0B0E065
:1016A0009A01AB01282B392B4A2B5B2BDA01C9019C
:1016B0008F779070A070B07080349105A105B1054E
:1016C00039F427FF09C0205C3F4F4F4F5F4F04C0E4
:1016D000215C3F4F4F4F5F4FE0E0F0E02030A0E053
:1016E0003A07A0E04A07A0E45A0710F0E1E0F0E072
:1016F00079018A0127C06038710564F5FB01E15862
:10170000FF4FD801C7018F779070A070B070803400
:101710009105A105B10539F4E7FE0DC080E490E024
:10172000A0E0B0E004C08FE390E0A0E0B0E0E80EFD
:10173000F91E0A1F1B1F17FF05C016950795F79482
:10174000E794319687E016950795F794E7948A9584
:10175000D1F705C0EE24FF248701EFEFF0E06E2FF4
:10176000679566276795902F9F77D794DD24D79448
:101770008E2F8695492F462B582F5D29B701CA0118
:101780001F910F91FF90EF90DF900895FC01DB0116
:10179000408151812281622F6F7770E0221F2227C2
:1017A000221F9381892F880F822B282F30E0991FC9
:1017B0009927991F11969C93119721153105A9F529
:1017C000411551056105710511F482E037C082E8C9
:1017D0009FEF13969C938E9312979A01AB0167E04B
:1017E000220F331F441F551F6A95D1F783E08C9356
:1017F0000DC0220F331F441F551F12968D919C91CF
:101800001397019713969C938E931297203080E044
:10181000380780E0480780E4580758F314962D9362
:101820003D934D935C93179708952F3F310579F4BD
:10183000411551056105710519F484E08C930895F3
:1018400064FF03C081E08C9312C01C9210C02F571C
:10185000304013963C932E93129783E08C9387E04D
:10186000440F551F661F771F8A95D1F77064149631
:101870004D935D936D937C93179708951F93DC01AF
:10188000FB019C91923008F447C08081823008F4BB
:1018900043C0943051F411961C91843099F58181A4
:1018A000682F70E0611B71093FC0843021F09230D5
:1018B00031F48230B9F18181882389F12DC01196EC
:1018C0001C9111978230F1F081811817D9F412968A
:1018D0002D913C911397828193818217930794F005
:1018E00028173907BCF014968D919D910D90BC91ED
:1018F000A02D2481358146815781281739074A0751
:101900005B0718F4112341F00AC082179307A4075C
:10191000B50740F4112319F061E070E005C06FEFE6
:101920007FEF02C060E070E0CB011F910895DF936C
:10193000CF93CDB7DEB76C970FB6F894DEBF0FBE6E
:10194000CDBFEFE5F0E080E8808382E060E041E039
:101950000E944B2382E061E041E00E944B2382E041
:1019600062E041E00E944B2360E875E280E090E095
:101970000E949B2F0E941D2880E690E00E94192C57
:1019800081E060E00E94422C81E790E00E94192CE7
:1019900080E090E0A8ECB3E4898F9A8FAB8FBC8F86
:1019A000698D7A8D8B8D9C8D20E030E04AEF54E478
:1019B0000E941309DC01CB018D8B9E8BAF8BB88FFE
:1019C0006D897E898F89988D20E030E040E85FE363
:1019D0000E946D0A88232CF481E090E09C8B8B8B15
:1019E0003FC06D897E898F89988D20E03FEF4FE75A
:1019F00057E40E940D0A18164CF5698D7A8D8B8D6F
:101A00009C8D20E030E040E251E40E941309DC01AB
:101A1000CB01BC01CD010E94C800DC01CB019C8B35
:101A20008B8B0FC088EC90E09A8B898B89899A897F
:101A30000197F1F79A8B898B8B899C8901979C8BF5
:101A40008B8B8B899C89009769F714C06D897E897F
:101A50008F89988D0E94C800DC01CB019C8B8B8BF9
:101A60008B899C89988B8F878F8598890197F1F74F
:101A7000988B8F870E94C02C80E090E0A8ECB2E4A5
:101A80008B879C87AD87BE876B857C858D859E8582
:101A900020E030E04AEF54E40E941309DC01CB015E
:101AA0008F839887A987BA876F81788589859A857A
:101AB00020E030E040E85FE30E946D0A88232CF4C8
:101AC00081E090E09E838D833FC06F81788589851A
:101AD0009A8520E03FEF4FE757E40E940D0A181661
:101AE0004CF56B857C858D859E8520E030E040E25D
:101AF00051E40E941309DC01CB01BC01CD010E941D
:101B0000C800DC01CB019E838D830FC088EC90E080
:101B10009C838B838B819C810197F1F79C838B83C2
:101B20008D819E8101979E838D838D819E810097FB
:101B300069F714C06F81788589859A850E94C800ED
:101B4000DC01CB019E838D838D819E819A83898365
:101B500089819A810197F1F79A83898387E893E0D5
:101B60000E94691087E893E00E94FB0E10928403A4
:101B700087E893E00E941F12F9CFDF93CF93CDB790
:101B8000DEB762970FB6F894DEBF0FBECDBF9A8B5B
:101B9000898B188A88C00E9489268F8781E00E94DD
:101BA000FA228889282F30E089899A89FC01E20F7E
:101BB000F31F8F8580838AE20E942A2A80E090E0CA
:101BC000A6E9B3E48B879C87AD87BE876B857C8550
:101BD0008D859E8520E030E04AEF54E40E94130991
:101BE000DC01CB018F839887A987BA876F817885BD
:101BF00089859A8520E030E040E85FE30E946D0A25
:101C000088232CF481E090E09E838D833FC06F8118
:101C1000788589859A8520E03FEF4FE757E40E9459
:101C20000D0A18164CF56B857C858D859E8520E008
:101C300030E040E251E40E941309DC01CB01BC0119
:101C4000CD010E94C800DC01CB019E838D830FC0B3
:101C500088EC90E09C838B838B819C810197F1F7CA
:101C60009C838B838D819E8101979E838D838D8143
:101C70009E81009769F714C06F81788589859A8560
:101C80000E94C800DC01CB019E838D838D819E81E3
:101C90009A83898389819A810197F1F79A8389834D
:101CA00088898F5F888B8889823008F474CF629628
:101CB0000FB6F894DEBF0FBECDBFCF91DF91089570
:101CC000DF93CF93CDB7DEB761970FB6F894DEBF41
:101CD0000FBECDBF998B888B1F8680C08F85282F24
:101CE00030E088899989FC01E20FF31F80810E940E
:101CF000E72F80E090E0A6E9B3E48B879C87AD876F
:101D0000BE876B857C858D859E8520E030E04AEF1F
:101D100054E40E941309DC01CB018F839887A987C3
:101D2000BA876F81788589859A8520E030E040E820
:101D30005FE30E946D0A88232CF481E090E09E838B
:101D40008D833FC06F81788589859A8520E03FEF3C
:101D50004FE757E40E940D0A18164CF56B857C85F9
:101D60008D859E8520E030E040E251E40E94130919
:101D7000DC01CB01BC01CD010E94C800DC01CB011C
:101D80009E838D830FC088EC90E09C838B838B8136
:101D90009C810197F1F79C838B838D819E810197B4
:101DA0009E838D838D819E81009769F714C06F811A
:101DB000788589859A850E94C800DC01CB019E83C5
:101DC0008D838D819E819A83898389819A810197F0
:101DD000F1F79A8389838F858F5F8F878F85823014
:101DE00008F47CCF61960FB6F894DEBF0FBECDBF6E
:101DF000CF91DF910895DF93CF93CDB7DEB76E9784
:101E00000FB6F894DEBF0FBECDBF9E8F8D8F80E0E2
:101E10000E94FA228DE790E00E94192C81E060E098
:101E20000E94422C8CE890E00E94192C8D8D9E8D92
:101E30000E94BD0D8D8D9E8D0E94600E0E94C02C53
:101E400088E990E00E94192C81E060E00E94422C19
:101E500088EA90E00E94192C8D8D9E8D0E94BD0D08
:101E60008D8D9E8D0E94600E0E94FE2F80938A03AE
:101E7000A8C00E94C02C84EB90E00E94192C80E046
:101E800090E0A6E9B3E4898F9A8FAB8FBC8F698D00
:101E90007A8D8B8D9C8D20E030E04AEF54E40E94D7
:101EA0001309DC01CB018D8B9E8BAF8BB88F6D89B5
:101EB0007E898F89988D20E030E040E85FE30E94C2
:101EC0006D0A88232CF481E090E09C8B8B8B3FC0C3
:101ED0006D897E898F89988D20E03FEF4FE757E429
:101EE0000E940D0A18164CF5698D7A8D8B8D9C8D8C
:101EF00020E030E040E251E40E941309DC01CB0114
:101F0000BC01CD010E94C800DC01CB019C8B8B8BF6
:101F10000FC088EC90E09A8B898B89899A89019708
:101F2000F1F79A8B898B8B899C8901979C8B8B8B82
:101F30008B899C89009769F714C06D897E898F8988
:101F4000988D0E94C800DC01CB019C8B8B8B8B8908
:101F50009C89988B8F878F8598890197F1F7988B4B
:101F60008F870E94C02C8DE790E00E94192C81E0A1
:101F700060E00E94422C88EA90E00E94192C8D8D2E
:101F80009E8D0E94BD0D8D8D9E8D0E94600E0E94C3
:101F9000C02C88E990E00E94192C81E060E00E944A
:101FA000422C86EC90E00E94192C8D8D9E8D0E9413
:101FB000BD0D8D8D9E8D0E94600E0E94FE2F809320
:101FC0008A0380918A03813009F453CF0E94C02C88
:101FD00088ED90E00E94192C80E090E0A6E9B3E43F
:101FE0008B879C87AD87BE876B857C858D859E851D
:101FF00020E030E04AEF54E40E941309DC01CB01F9
:102000008F839887A987BA876F81788589859A8514
:1020100020E030E040E85FE30E946D0A88232CF462
:1020200081E090E09E838D833FC06F8178858985B4
:102030009A8520E03FEF4FE757E40E940D0A1816FB
:102040004CF56B857C858D859E8520E030E040E2F7
:1020500051E40E941309DC01CB01BC01CD010E94B7
:10206000C800DC01CB019E838D830FC088EC90E01B
:102070009C838B838B819C810197F1F79C838B835D
:102080008D819E8101979E838D838D819E81009796
:1020900069F714C06F81788589859A850E94C80088
:1020A000DC01CB019E838D838D819E819A83898300
:1020B00089819A810197F1F79A8389830E94C02CC4
:1020C0006E960FB6F894DEBF0FBECDBFCF91DF91F5
:1020D0000895DF93CF93CDB7DEB76E970FB6F89420
:1020E000DEBF0FBECDBF9E8F8D8F80E00E94FA2293
:1020F0008BEE90E00E94192C81E060E00E94422C5F
:102100008AEF90E00E94192C8D8D9E8D0E94BD0D4E
:102110008D8D9E8D0E94600E0E94C02C8BEE90E0F3
:102120000E94192C81E060E00E94422C86E091E040
:102130000E94192C8D8D9E8D0E94BD0D8D8D9E8DC2
:102140000E94600E0E94FE2F80938A03A8C00E9406
:10215000C02C84EB90E00E94192C80E090E0A6E96E
:10216000B3E4898F9A8FAB8FBC8F698D7A8D8B8DFD
:102170009C8D20E030E04AEF54E40E941309DC011A
:10218000CB018D8B9E8BAF8BB88F6D897E898F89AC
:10219000988D20E030E040E85FE30E946D0A8823DC
:1021A0002CF481E090E09C8B8B8B3FC06D897E8905
:1021B0008F89988D20E03FEF4FE757E40E940D0A8A
:1021C00018164CF5698D7A8D8B8D9C8D20E030E052
:1021D00040E251E40E941309DC01CB01BC01CD01B6
:1021E0000E94C800DC01CB019C8B8B8B0FC088EC5C
:1021F00090E09A8B898B89899A890197F1F79A8B5C
:10220000898B8B899C8901979C8B8B8B8B899C8973
:10221000009769F714C06D897E898F89988D0E9417
:10222000C800DC01CB019C8B8B8B8B899C89988BA4
:102230008F878F8598890197F1F7988B8F870E94F8
:10224000C02C8BEE90E00E94192C81E060E00E948F
:10225000422C8AEF90E00E94192C8D8D9E8D0E9459
:10226000BD0D8D8D9E8D0E94600E0E94C02C8BEE48
:1022700090E00E94192C81E060E00E94422C8AEFDD
:1022800090E00E94192C8D8D9E8D0E94BD0D8D8D2C
:102290009E8D0E94600E0E94FE2F80938A03809183
:1022A0008A03813009F453CF0E94C02C82E191E06F
:1022B0000E94192C80E090E0A6E9B3E48B879C870C
:1022C000AD87BE876B857C858D859E8520E030E05F
:1022D0004AEF54E40E941309DC01CB018F839887F5
:1022E000A987BA876F81788589859A8520E030E053
:1022F00040E85FE30E946D0A88232CF481E090E0BF
:102300009E838D833FC06F81788589859A8520E083
:102310003FEF4FE757E40E940D0A18164CF56B8506
:102320007C858D859E8520E030E040E251E40E946E
:102330001309DC01CB01BC01CD010E94C800DC0106
:10234000CB019E838D830FC088EC90E09C838B83B0
:102350008B819C810197F1F79C838B838D819E817A
:1023600001979E838D838D819E81009769F714C0AC
:102370006F81788589859A850E94C800DC01CB0130
:102380009E838D838D819E819A83898389819A81A1
:102390000197F1F79A8389830E94C02C6E960FB63D
:1023A000F894DEBF0FBECDBFCF91DF910895DF93CC
:1023B000CF93CDB7DEB782E060E041E00E943624E3
:1023C000CF91DF910895DF93CF93CDB7DEB782E051
:1023D00060E040E00E943624CF91DF910895DF93C2
:1023E000CF93CDB7DEB782E061E040E00E943624B3
:1023F000CF91DF910895DF93CF93CDB7DEB782E021
:1024000061E041E00E943624CF91DF910895DF938F
:10241000CF93CDB7DEB782E062E041E00E94362480
:10242000CF91DF910895DF93CF93CDB7DEB782E0F0
:1024300062E040E00E943624CF91DF910895DF935F
:10244000CF93CDB7DEB7A1970FB6F894DEBF0FBE1E
:10245000CDBF9F8F8E8F0E94C02C85E291E00E949D
:10246000192C81E060E00E94422C82E391E00E94FE
:10247000192C0E9489268D8F80E090E0A6E9B3E4B4
:10248000898F9A8FAB8FBC8F698D7A8D8B8D9C8D48
:1024900020E030E04AEF54E40E941309DC01CB0154
:1024A0008D8B9E8BAF8BB88F6D897E898F89988D30
:1024B00020E030E040E85FE30E946D0A88232CF4BE
:1024C00081E090E09C8B8B8B3FC06D897E898F89EA
:1024D000988D20E03FEF4FE757E40E940D0A181651
:1024E0004CF5698D7A8D8B8D9C8D20E030E040E23B
:1024F00051E40E941309DC01CB01BC01CD010E9413
:10250000C800DC01CB019C8B8B8B0FC088EC90E06A
:102510009A8B898B89899A890197F1F79A8B898B94
:102520008B899C8901979C8B8B8B8B899C890097CD
:1025300069F714C06D897E898F89988D0E94C800C3
:10254000DC01CB019C8B8B8B8B899C89988B8F8733
:102550008F8598890197F1F7988B8F878D8D282F1C
:1025600030E039A328A388A199A1009731F028A1D0
:1025700039A12130310549F010C080E00E94E72FD9
:102580008E8D9F8D0E94501382C081E00E94E72FA4
:102590008E8D9F8D0E94821D7AC00E94C02C83E484
:1025A00091E00E94192C80E090E0A8ECB3E48B87C6
:1025B0009C87AD87BE876B857C858D859E8520E059
:1025C00030E04AEF54E40E941309DC01CB018F8311
:1025D0009887A987BA876F81788589859A8520E051
:1025E00030E040E85FE30E946D0A88232CF481E02C
:1025F00090E09E838D833FC06F81788589859A8521
:1026000020E03FEF4FE757E40E940D0A18164CF503
:102610006B857C858D859E8520E030E040E251E42D
:102620000E941309DC01CB01BC01CD010E94C8004E
:10263000DC01CB019E838D830FC088EC90E09C83EE
:102640008B838B819C810197F1F79C838B838D8198
:102650009E8101979E838D838D819E81009769F76E
:1026600014C06F81788589859A850E94C800DC0135
:10267000CB019E838D838D819E819A8389838981FD
:102680009A810197F1F79A8389830E94C02CA196C1
:102690000FB6F894DEBF0FBECDBFCF91DF91089586
:1026A0000F931F93DF93CF93CDB7DEB7CF5AD040B0
:1026B0000FB6F894DEBF0FBECDBFFE01E655FF4F4B
:1026C000918380830E94C02C85E591E00E94192CA3
:1026D00081E060E00E94422C81E691E00E94192C8A
:1026E00087E893E00E94BD0D87E893E00E94600EAA
:1026F0000E94FE2F80938A03D3C00E94C02C8EE6D6
:1027000091E00E94192CFE01EB55FF4F80E090E014
:10271000A6E9B3E480839183A283B3838E010F552E
:102720001F4FFE01EB55FF4F6081718182819381C4
:1027300020E030E04AEF54E40E941309DC01CB01B1
:10274000F80180839183A283B383FE01EF55FF4F8D
:10275000608171818281938120E030E040E85FE315
:102760000E946D0A882344F4FE01E156FF4F81E088
:1027700090E09183808364C0FE01EF55FF4F60813C
:1027800071818281938120E03FEF4FE757E40E94FF
:102790000D0A18160CF043C0FE01EB55FF4F608187
:1027A00071818281938120E030E040E251E40E9417
:1027B0001309DC01CB018E0101561F4FBC01CD0175
:1027C0000E94C800DC01CB01F801918380831FC007
:1027D000FE01E356FF4F88EC90E091838083FE0179
:1027E000E356FF4F808191810197F1F7FE01E35697
:1027F000FF4F91838083DE01A156BF4FFE01E1565A
:10280000FF4F80819181019711969C938E93FE01D9
:10281000E156FF4F808191810097D1F627C08E014C
:1028200001561F4FFE01EF55FF4F6081718182817C
:1028300093810E94C800DC01CB01F8019183808361
:10284000DE01A556BF4FFE01E156FF4F8081918109
:102850008D939C93FE01E556FF4F808191810197F6
:10286000F1F7FE01E556FF4F918380830E94C02C53
:1028700085E591E00E94192C81E060E00E94422CE5
:1028800081E691E00E94192C87E893E00E94BD0D3B
:1028900087E893E00E94600E0E94FE2F80938A03D7
:1028A00080918A03882309F028CF80918A038823A6
:1028B00011F00C94761D0E94C02C0E94EF110E9412
:1028C000D71180E891E00E94192CFE01E956FF4FD4
:1028D00080E090E0A6E9B3E480839183A283B38390
:1028E0008E010D561F4FFE01E956FF4F6081718129
:1028F0008281938120E030E04AEF54E40E94130982
:10290000DC01CB01F80180839183A283B383FE01B4
:10291000ED56FF4F608171818281938120E030E02C
:1029200040E85FE30E946D0A882344F4FE01EF56FD
:10293000FF4F81E090E09183808364C0FE01ED56FB
:10294000FF4F608171818281938120E03FEF4FE7EB
:1029500057E40E940D0A18160CF043C0FE01E95618
:10296000FF4F608171818281938120E030E040E2FD
:1029700051E40E941309DC01CB018E010F561F4F59
:10298000BC01CD010E94C800DC01CB01F80191839C
:1029900080831FC0FE01E157FF4F88EC90E09183D8
:1029A0008083FE01E157FF4F808191810197F1F70C
:1029B000FE01E157FF4F91838083DE01AF56BF4F89
:1029C000FE01EF56FF4F80819181019711969C93F4
:1029D0008E93FE01EF56FF4F808191810097D1F6D3
:1029E00027C08E010F561F4FFE01ED56FF4F60812D
:1029F0007181828193810E94C800DC01CB01F801C2
:102A000091838083DE01A357BF4FFE01EF56FF4F36
:102A1000808191818D939C93FE01E357FF4F8081CC
:102A200091810197F1F7FE01E357FF4F9183808376
:102A30000E94C02C26E931E080E060E0A9010E94FC
:102A4000842C26EA31E081E060E0A9010E94842C18
:102A50000E948926FE01E755FF4F8083FE01E7575C
:102A6000FF4F80E090E0A8ECB3E480839183A283E1
:102A7000B3838E010B571F4FFE01E757FF4F608155
:102A800071818281938120E030E04AEF54E40E941A
:102A90001309DC01CB01F80180839183A283B38306
:102AA000FE01EB57FF4F608171818281938120E0AD
:102AB00030E040E85FE30E946D0A882344F4FE01A1
:102AC000ED57FF4F81E090E09183808364C0FE0169
:102AD000EB57FF4F608171818281938120E03FEF4E
:102AE0004FE757E40E940D0A18160CF043C0FE0190
:102AF000E757FF4F608171818281938120E030E050
:102B000040E251E40E941309DC01CB018E010D5714
:102B10001F4FBC01CD010E94C800DC01CB01F801B0
:102B2000918380831FC0FE01EF57FF4F88EC90E038
:102B300091838083FE01EF57FF4F80819181019740
:102B4000F1F7FE01EF57FF4F91838083DE01AD5710
:102B5000BF4FFE01ED57FF4F808191810197119684
:102B60009C938E93FE01ED57FF4F808191810097DA
:102B7000D1F628C08E010D571F4FFE01EB57FF4FB6
:102B800060817181828193810E94C800DC01CB0148
:102B9000F80191838083DE01A158BF4FFE01ED57FC
:102BA000FF4F8081918111969C938E93FE01E15895
:102BB000FF4F808191810197F1F7FE01E158FF4FAE
:102BC00091838083FE01E755FF4F8081813009F0BA
:102BD000FEC080E00E94E72F0E94C02C85EB91E0B0
:102BE0000E94192C0E94FE2F8093890380918903F3
:102BF000813029F48EEB91E00E94192C04C082EC04
:102C000091E00E94192C81E060E00E94422C85EC4A
:102C100091E00E94192C0E948926FE01E755FF4F82
:102C20008083FE01E558FF4F80E090E0A8ECB3E41C
:102C300080839183A283B3838E0109581F4FFE01C5
:102C4000E558FF4F608171818281938120E030E0FF
:102C50004AEF54E40E941309DC01CB01F8018083A0
:102C60009183A283B383FE01E958FF4F6081718194
:102C70008281938120E030E040E85FE30E946D0AAA
:102C8000882344F4FE01EB58FF4F81E090E09183EC
:102C9000808364C0FE01E958FF4F608171818281A9
:102CA000938120E03FEF4FE757E40E940D0A18168A
:102CB0000CF043C0FE01E558FF4F608171818281B5
:102CC000938120E030E040E251E40E941309DC01EE
:102CD000CB018E010B581F4FBC01CD010E94C800D3
:102CE000DC01CB01F801918380831FC0FE01ED5808
:102CF000FF4F88EC90E091838083FE01ED58FF4FF9
:102D0000808191810197F1F7FE01ED58FF4F91838A
:102D10008083DE01AB58BF4FFE01EB58FF4F80812F
:102D20009181019711969C938E93FE01EB58FF4F72
:102D3000808191810097D1F628C08E010B581F4FDA
:102D4000FE01E958FF4F60817181828193810E9469
:102D5000C800DC01CB01F80191838083DE01AF580C
:102D6000BF4FFE01EB58FF4F8081918111969C93DC
:102D70008E93FE01EF58FF4F808191810197F1F70B
:102D8000FE01EF58FF4F91838083FE01E755FF4F0F
:102D90008081813021F480E00E94E72FA1C6FE01EE
:102DA000E755FF4F8081823021F481E00E94E72FB8
:102DB00097C6FE01E755FF4F8081882309F090C632
:102DC00082E00E94E72F81E08093840389C6FE01A0
:102DD000E755FF4F8081823009F0FEC081E00E94FC
:102DE000E72F0E94C02C86ED91E00E94192C0E94D2
:102DF000FE2F8093890380918903813029F48EEB23
:102E000091E00E94192C04C082EC91E00E94192CE0
:102E100081E060E00E94422C85EC91E00E94192C38
:102E20000E948926FE01E755FF4F8083FE01E3598A
:102E3000FF4F80E090E0A8ECB3E480839183A2830D
:102E4000B3838E0107591F4FFE01E359FF4F608185
:102E500071818281938120E030E04AEF54E40E9446
:102E60001309DC01CB01F80180839183A283B38332
:102E7000FE01E759FF4F608171818281938120E0DB
:102E800030E040E85FE30E946D0A882344F4FE01CD
:102E9000E959FF4F81E090E09183808364C0FE0197
:102EA000E759FF4F608171818281938120E03FEF7C
:102EB0004FE757E40E940D0A18160CF043C0FE01BC
:102EC000E359FF4F608171818281938120E030E07E
:102ED00040E251E40E941309DC01CB018E01095943
:102EE0001F4FBC01CD010E94C800DC01CB01F801DD
:102EF000918380831FC0FE01EB59FF4F88EC90E067
:102F000091838083FE01EB59FF4F8081918101976E
:102F1000F1F7FE01EB59FF4F91838083DE01A95940
:102F2000BF4FFE01E959FF4F8081918101971196B2
:102F30009C938E93FE01E959FF4F80819181009708
:102F4000D1F628C08E0109591F4FFE01E759FF4FE6
:102F500060817181828193810E94C800DC01CB0174
:102F6000F80191838083DE01AD59BF4FFE01E9591D
:102F7000FF4F8081918111969C938E93FE01ED59B4
:102F8000FF4F808191810197F1F7FE01ED59FF4FCD
:102F900091838083FE01E755FF4F8081813021F4CA
:102FA00080E00E94E72F9CC5FE01E755FF4F80811E
:102FB000823021F481E00E94E72F92C5FE01E7559F
:102FC000FF4F8081882309F08BC582E00E94E72FA4
:102FD00081E08093840384C5FE01E755FF4F808123
:102FE000833009F0FEC082E00E94E72F0E94C02CCF
:102FF0008FED91E00E94192C0E94FE2F809389038F
:1030000080918903813029F48EEB91E00E94192C84
:1030100004C082EC91E00E94192C81E060E00E94E3
:10302000422C85EC91E00E94192C0E948926FE0119
:10303000E755FF4F8083FE01E15AFF4F80E090E0AB
:10304000A8ECB3E480839183A283B3838E01055AF5
:103050001F4FFE01E15AFF4F608171818281938190
:1030600020E030E04AEF54E40E941309DC01CB0178
:10307000F80180839183A283B383FE01E55AFF4F59
:10308000608171818281938120E030E040E85FE3DC
:103090000E946D0A882344F4FE01E75AFF4F81E045
:1030A00090E09183808364C0FE01E55AFF4F608108
:1030B00071818281938120E03FEF4FE757E40E94C6
:1030C0000D0A18160CF043C0FE01E15AFF4F608153
:1030D00071818281938120E030E040E251E40E94DE
:1030E0001309DC01CB018E01075A1F4FBC01CD0132
:1030F0000E94C800DC01CB01F801918380831FC0CE
:10310000FE01E95AFF4F88EC90E091838083FE0135
:10311000E95AFF4F808191810197F1F7FE01E95A49
:10312000FF4F91838083DE01A75ABF4FFE01E75A0C
:10313000FF4F80819181019711969C938E93FE01A0
:10314000E75AFF4F808191810097D1F628C08E0108
:10315000075A1F4FFE01E55AFF4F6081718182813E
:1031600093810E94C800DC01CB01F8019183808328
:10317000DE01AB5ABF4FFE01E75AFF4F80819181BC
:1031800011969C938E93FE01EB5AFF4F80819181A3
:103190000197F1F7FE01EB5AFF4F91838083FE0107
:1031A000E755FF4F8081813021F480E00E94E72FB6
:1031B00097C4FE01E755FF4F8081823021F481E002
:1031C0000E94E72F8DC4FE01E755FF4F80818823C1
:1031D00009F086C482E00E94E72F81E08093840397
:1031E0007FC4FE01E755FF4F8081843009F078C429
:1031F00084E00E94E72F0E94C02C88EE91E00E949C
:10320000192C81E060E00E94422C85EF91E00E9441
:10321000192C0E948926FE01E755FF4F8083FE018D
:10322000EF5AFF4F80E090E0AAEFB3E480839183F0
:10323000A283B3838E01035B1F4FFE01EF5AFF4F42
:10324000608171818281938120E030E04AEF54E413
:103250000E941309DC01CB01F80180839183A283D2
:10326000B383FE01E35BFF4F6081718182819381B3
:1032700020E030E040E85FE30E946D0A882344F4D8
:10328000FE01E55BFF4F81E090E09183808364C0A5
:10329000FE01E35BFF4F608171818281938120E0B9
:1032A0003FEF4FE757E40E940D0A18160CF043C099
:1032B000FE01EF5AFF4F608171818281938120E08E
:1032C00030E040E251E40E941309DC01CB018E01A1
:1032D000055B1F4FBC01CD010E94C800DC01CB0182
:1032E000F801918380831FC0FE01E75BFF4F88ECEC
:1032F00090E091838083FE01E75BFF4F80819181A5
:103300000197F1F7FE01E75BFF4F91838083DE01B8
:10331000A55BBF4FFE01E55BFF4F80819181019767
:1033200011969C938E93FE01E55BFF4F8081918106
:103330000097D1F628C08E01055B1F4FFE01E35BAD
:10334000FF4F60817181828193810E94C800DC01FE
:10335000CB01F80191838083DE01A95BBF4FFE01A1
:10336000E55BFF4F8081918111969C938E93FE01C6
:10337000E95BFF4F808191810197F1F7FE01E95BE5
:10338000FF4F91838083FE01E755FF4F8081282FF7
:1033900030E0C255DF4F39832883CE5AD040C25522
:1033A000DF4F88819981CE5AD0408230910509F44F
:1033B000E3C0C255DF4FE881F981CE5AD040E330F7
:1033C000F10509F495C1C255DF4F28813981CE5AE4
:1033D000D0402130310509F083C383E00E94E72FFC
:1033E0000E94C02C85E092E00E94192C0E94FE2FC2
:1033F0008093890380918903813029F48EEB91E0D9
:103400000E94192C04C082EC91E00E94192C81E0EA
:1034100060E00E94422C85EC91E00E94192C0E94F1
:103420008926FE01E755FF4F8083FE01ED5BFF4FCC
:1034300080E090E0AAEFB3E480839183A283B3831A
:103440008E01015C1F4FFE01ED5BFF4F60817181BA
:103450008281938120E030E04AEF54E40E94130916
:10346000DC01CB01F80180839183A283B383FE0149
:10347000FF96608171818281938120E030E040E895
:103480005FE30E946D0A88232CF481E090E09EAFF8
:103490008DAF46C0FE01FF9660817181828193816C
:1034A00020E03FEF4FE757E40E940D0A181664F53D
:1034B000FE01ED5BFF4F608171818281938120E08D
:1034C00030E040E251E40E941309DC01CB01BC0171
:1034D000CD010E94C800DC01CB019EAF8DAF0FC0B3
:1034E00088EC90E09CAF8BAF8BAD9CAD0197F1F772
:1034F0009CAF8BAF8DAD9EAD01979EAF8DAF8DAD67
:103500009EAD009769F716C0FE01FF96608171813C
:10351000828193810E94C800DC01CB019EAF8DAFF8
:103520008DAD9EAD9AAF89AF89AD9AAD0197F1F798
:103530009AAF89AFFE01E755FF4F8081813021F4BA
:1035400080E00E94E72FCCC2FE01E755FF4F80814B
:10355000823021F481E00E94E72FC2C2FE01E755CC
:10356000FF4F8081882309F0BBC282E00E94E72FD1
:1035700081E080938403B4C285E00E94E72F0E941B
:10358000C02C8EE092E00E94192C0E94FE2F8093A6
:10359000890380918903813029F48EEB91E00E94A8
:1035A000192C04C082EC91E00E94192C81E060E0AB
:1035B0000E94422C85EC91E00E94192C0E948926E1
:1035C000FE01E755FF4F808380E090E0AAEFB3E46F
:1035D0008DAB9EABAFABB8AF6DA97EA98FA998ADEF
:1035E00020E030E04AEF54E40E941309DC01CB01F3
:1035F00089AB9AABABABBCAB69A97AA98BA99CA9E7
:1036000020E030E040E85FE30E946D0A88232CF45C
:1036100081E090E098AB8FA73FC069A97AA98BA9F8
:103620009CA920E03FEF4FE757E40E940D0A1816CF
:103630004CF56DA97EA98FA998AD20E030E040E25D
:1036400051E40E941309DC01CB01BC01CD010E94B1
:10365000C800DC01CB0198AB8FA70FC088EC90E0CD
:103660009EA78DA78DA59EA50197F1F79EA78DA773
:103670008FA598A9019798AB8FA78FA598A90097B8
:1036800069F714C069A97AA98BA99CA90E94C800EE
:10369000DC01CB0198AB8FA78FA598A99CA78BA71E
:1036A0008BA59CA50197F1F79CA78BA7FE01E75579
:1036B000FF4F8081813021F480E00E94E72F10C20B
:1036C000FE01E755FF4F8081823021F481E00E94A6
:1036D000E72F06C2FE01E755FF4F8081882309F0DE
:1036E000FFC182E00E94E72F81E080938403F8C14C
:1036F00086E00E94E72F0E94C02C84E192E00E94A5
:10370000192C81E060E00E94422C86E292E00E9447
:10371000192C0E948926FE01E755FF4F808380E027
:1037200090E0AAEFB3E48FA398A7A9A7BAA76FA1C7
:1037300078A589A59AA520E030E04AEF54E40E94DC
:103740001309DC01CB018BA39CA3ADA3BEA36BA18A
:103750007CA18DA19EA120E030E040E85FE30E94C3
:103760006D0A88232CF481E090E09AA389A33FC0DE
:103770006BA17CA18DA19EA120E03FEF4FE757E414
:103780000E940D0A18164CF56FA178A589A59AA577
:1037900020E030E040E251E40E941309DC01CB015B
:1037A000BC01CD010E94C800DC01CB019AA389A312
:1037B0000FC088EC90E098A38F8F8F8D98A1019710
:1037C000F1F798A38F8F89A19AA101979AA389A352
:1037D00089A19AA1009769F714C06BA17CA18DA162
:1037E0009EA10E94C800DC01CB019AA389A389A1F4
:1037F0009AA19E8F8D8F8D8D9E8D0197F1F79E8F53
:103800008D8FFE01E755FF4F8081282F30E0C45592
:10381000DF4F39832883CC5AD040C455DF4F88818D
:103820009981CC5AD0408130910559F0C455DF4F71
:10383000E881F981CC5AD040E230F10509F496C014
:103840004FC188E00E94E72F0E94FE2F80938B03D8
:103850000E94C02C86E392E00E94192C80918B0379
:10386000882F90E00E949D2C80E090E0AAEFB3E4C6
:10387000898F9A8FAB8FBC8F698D7A8D8B8D9C8D44
:1038800020E030E04AEF54E40E941309DC01CB0150
:103890008D8B9E8BAF8BB88F6D897E898F89988D2C
:1038A00020E030E040E85FE30E946D0A88232CF4BA
:1038B00081E090E09C8B8B8B3FC06D897E898F89E6
:1038C000988D20E03FEF4FE757E40E940D0A18164D
:1038D0004CF5698D7A8D8B8D9C8D20E030E040E237
:1038E00051E40E941309DC01CB01BC01CD010E940F
:1038F000C800DC01CB019C8B8B8B0FC088EC90E067
:103900009A8B898B89899A890197F1F79A8B898B90
:103910008B899C8901979C8B8B8B8B899C890097C9
:1039200069F714C06D897E898F89988D0E94C800BF
:10393000DC01CB019C8B8B8B8B899C89988B8F872F
:103940008F8598890197F1F7988B8F8780918B03EA
:10395000823330F082E062E041E00E943624C0C051
:1039600082E062E040E00E943624BAC087E00E9414
:10397000E72F0E94C02C8DE392E00E94192C0E9438
:10398000FE2F8093890380918903813029F48EEB87
:1039900091E00E94192C04C082EC91E00E94192C45
:1039A00081E060E00E94422C85EC91E00E94192C9D
:1039B0000E948926FE01E755FF4F808380E090E05A
:1039C000AAEFB3E48B879C87AD87BE876B857C8528
:1039D0008D859E8520E030E04AEF54E40E94130973
:1039E000DC01CB018F839887A987BA876F8178859F
:1039F00089859A8520E030E040E85FE30E946D0A07
:103A000088232CF481E090E09E838D833FC06F81FA
:103A1000788589859A8520E03FEF4FE757E40E943B
:103A20000D0A18164CF56B857C858D859E8520E0EA
:103A300030E040E251E40E941309DC01CB01BC01FB
:103A4000CD010E94C800DC01CB019E838D830FC095
:103A500088EC90E09C838B838B819C810197F1F7AC
:103A60009C838B838D819E8101979E838D838D8125
:103A70009E81009769F714C06F81788589859A8542
:103A80000E94C800DC01CB019E838D838D819E81C5
:103A90009A83898389819A810197F1F79A8389832F
:103AA000FE01E755FF4F8081813021F480E00E94C4
:103AB000E72F16C0FE01E755FF4F8081823021F4C9
:103AC00081E00E94E72F0CC0FE01E755FF4F808187
:103AD000882331F482E00E94E72F81E08093840301
:103AE00080918403813011F00C941A15C155DF4F79
:103AF0000FB6F894DEBF0FBECDBFCF91DF911F91FF
:103B00000F9108950F931F93DF93CF93CDB7DEB737
:103B1000C556D0400FB6F894DEBF0FBECDBFFE0134
:103B2000EC59FF4F918380830E94C02C84E492E083
:103B30000E94192C81E060E00E94422C81E691E015
:103B40000E94192CFE01EC59FF4F808191810E9447
:103B5000BD0DFE01EC59FF4F808191810E94600EE6
:103B60000E94FE2F80938A03D9C00E94C02C8EE64B
:103B700091E00E94192CFE01E15AFF4F80E090E095
:103B8000A6E9B3E480839183A283B3838E01055AAF
:103B90001F4FFE01E15AFF4F608171818281938145
:103BA00020E030E04AEF54E40E941309DC01CB012D
:103BB000F80180839183A283B383FE01E55AFF4F0E
:103BC000608171818281938120E030E040E85FE391
:103BD0000E946D0A882344F4FE01E75AFF4F81E0FA
:103BE00090E09183808364C0FE01E55AFF4F6081BD
:103BF00071818281938120E03FEF4FE757E40E947B
:103C00000D0A18160CF043C0FE01E15AFF4F608107
:103C100071818281938120E030E040E251E40E9492
:103C20001309DC01CB018E01075A1F4FBC01CD01E6
:103C30000E94C800DC01CB01F801918380831FC082
:103C4000FE01E95AFF4F88EC90E091838083FE01EA
:103C5000E95AFF4F808191810197F1F7FE01E95AFE
:103C6000FF4F91838083DE01A75ABF4FFE01E75AC1
:103C7000FF4F80819181019711969C938E93FE0155
:103C8000E75AFF4F808191810097D1F627C08E01BE
:103C9000075A1F4FFE01E55AFF4F608171818281F3
:103CA00093810E94C800DC01CB01F80191838083DD
:103CB000DE01AB5ABF4FFE01E75AFF4F8081918171
:103CC0008D939C93FE01EB5AFF4F80819181019768
:103CD000F1F7FE01EB5AFF4F918380830E94C02CC5
:103CE00084E492E00E94192C81E060E00E94422C62
:103CF00081E691E00E94192CFE01EC59FF4F808172
:103D000091810E94BD0DFE01EC59FF4F8081918190
:103D10000E94600E0E94FE2F80938A0380918A0386
:103D2000882309F022CF80918A03882309F056C4A2
:103D30000E94C02C0E94E3110E94FB1180E592E0DA
:103D40000E94192CFE01EF5AFF4F80E090E0A6E997
:103D5000B3E480839183A283B3838E01035B1F4FFF
:103D6000FE01EF5AFF4F608171818281938120E0D3
:103D700030E04AEF54E40E941309DC01CB01F80162
:103D800080839183A283B383FE01E35BFF4F608155
:103D900071818281938120E030E040E85FE30E94FE
:103DA0006D0A882344F4FE01E55BFF4F81E090E05B
:103DB0009183808364C0FE01E35BFF4F608171816A
:103DC0008281938120E03FEF4FE757E40E940D0A84
:103DD00018160CF043C0FE01EF5AFF4F608171814D
:103DE0008281938120E030E040E251E40E94130997
:103DF000DC01CB018E01055B1F4FBC01CD010E9490
:103E0000C800DC01CB01F801918380831FC0FE0153
:103E1000E75BFF4F88EC90E091838083FE01E75BD6
:103E2000FF4F808191810197F1F7FE01E75BFF4F22
:103E300091838083DE01A55BBF4FFE01E55BFF4FF1
:103E400080819181019711969C938E93FE01E55B91
:103E5000FF4F808191810097D1F627C08E01055BCD
:103E60001F4FFE01E35BFF4F60817181828193816F
:103E70000E94C800DC01CB01F80191838083DE0140
:103E8000A95BBF4FFE01E55BFF4F808191818D9360
:103E90009C93FE01E95BFF4F808191810197F1F7CF
:103EA000FE01E95BFF4F918380830E94C02C26E9CD
:103EB00031E080E060E0A9010E94842C26E632E037
:103EC00081E060E0A9010E94842C0E948926FE0105
:103ED000ED59FF4F8083FE01ED5BFF4F80E090E0E6
:103EE000A8ECB3E480839183A283B3838E01015C49
:103EF0001F4FFE01ED5BFF4F6081718182819381D5
:103F000020E030E04AEF54E40E941309DC01CB01C9
:103F1000F80180839183A283B383FE01FF966081C1
:103F200071818281938120E030E040E85FE30E946C
:103F30006D0A88232CF481E090E09EAF8DAF46C0DF
:103F4000FE01FF96608171818281938120E03FEFC5
:103F50004FE757E40E940D0A181664F5FE01ED5B69
:103F6000FF4F608171818281938120E030E040E2E7
:103F700051E40E941309DC01CB01BC01CD010E9478
:103F8000C800DC01CB019EAF8DAF0FC088EC90E084
:103F90009CAF8BAF8BAD9CAD0197F1F79CAF8BAF16
:103FA0008DAD9EAD01979EAF8DAF8DAD9EAD00974F
:103FB00069F716C0FE01FF9660817181828193814D
:103FC0000E94C800DC01CB019EAF8DAF8DAD9EADD0
:103FD0009AAF89AF89AD9AAD0197F1F79AAF89AFE2
:103FE000FE01ED59FF4F8081813009F0B9C080E0BA
:103FF0000E94E72F0E94C02C85EB91E00E94192CB3
:104000000E94FE2F8093890380918903813029F4D7
:104010008EEB91E00E94192C04C082EC91E00E948A
:10402000192C81E060E00E94422C85EC91E00E9416
:10403000192C0E948926FE01ED59FF4F808380E0F4
:1040400090E0A8ECB3E48DAB9EABAFABB8AF6DA97D
:104050007EA98FA998AD20E030E04AEF54E40E9499
:104060001309DC01CB0189AB9AABABABBCAB69A943
:104070007AA98BA99CA920E030E040E85FE30E9488
:104080006D0A88232CF481E090E098AB8FA73FC0A5
:1040900069A97AA98BA99CA920E03FEF4FE757E4D3
:1040A0000E940D0A18164CF56DA97EA98FA998AD2E
:1040B00020E030E040E251E40E941309DC01CB0132
:1040C000BC01CD010E94C800DC01CB0198AB8FA7D9
:1040D0000FC088EC90E09EA78DA78DA59EA50197A7
:1040E000F1F79EA78DA78FA598A9019798AB8FA7E9
:1040F0008FA598A9009769F714C069A97AA98BA917
:104100009CA90E94C800DC01CB0198AB8FA78FA5AA
:1041100098A99CA78BA78BA59CA50197F1F79CA7B5
:104120008BA7FE01ED59FF4F8081813021F480E0A3
:104130000E94E72F53C2FE01ED59FF4F808182306C
:1041400021F481E00E94E72F49C2FE01ED59FF4FA3
:104150008081882309F042C282E00E94E72F3EC29C
:10416000FE01ED59FF4F8081823009F0B9C081E036
:104170000E94E72F0E94C02C86ED91E00E94192C2E
:104180000E94FE2F8093890380918903813029F456
:104190008EEB91E00E94192C04C082EC91E00E9409
:1041A000192C81E060E00E94422C85EC91E00E9495
:1041B000192C0E948926FE01ED59FF4F808380E073
:1041C00090E0A8ECB3E48FA398A7A9A7BAA76FA122
:1041D00078A589A59AA520E030E04AEF54E40E9432
:1041E0001309DC01CB018BA39CA3ADA3BEA36BA1E0
:1041F0007CA18DA19EA120E030E040E85FE30E9419
:104200006D0A88232CF481E090E09AA389A33FC033
:104210006BA17CA18DA19EA120E03FEF4FE757E469
:104220000E940D0A18164CF56FA178A589A59AA5CC
:1042300020E030E040E251E40E941309DC01CB01B0
:10424000BC01CD010E94C800DC01CB019AA389A367
:104250000FC088EC90E098A38F8F8F8D98A1019765
:10426000F1F798A38F8F89A19AA101979AA389A3A7
:1042700089A19AA1009769F714C06BA17CA18DA1B7
:104280009EA10E94C800DC01CB019AA389A389A149
:104290009AA19E8F8D8F8D8D9E8D0197F1F79E8FA8
:1042A0008D8FFE01ED59FF4F8081813021F480E038
:1042B0000E94E72F93C1FE01ED59FF4F80818230AC
:1042C00021F481E00E94E72F89C1FE01ED59FF4FE3
:1042D0008081882309F082C182E00E94E72F7EC19D
:1042E000FE01ED59FF4F8081833009F0B9C082E0B3
:1042F0000E94E72F0E94C02C8FED91E00E94192CA4
:104300000E94FE2F8093890380918903813029F4D4
:104310008EEB91E00E94192C04C082EC91E00E9487
:10432000192C81E060E00E94422C85EC91E00E9413
:10433000192C0E948926FE01ED59FF4F808380E0F1
:1043400090E0A8ECB3E4898F9A8FAB8FBC8F698D16
:104350007A8D8B8D9C8D20E030E04AEF54E40E94F2
:104360001309DC01CB018D8B9E8BAF8BB88F6D89D0
:104370007E898F89988D20E030E040E85FE30E94DD
:104380006D0A88232CF481E090E09C8B8B8B3FC0DE
:104390006D897E898F89988D20E03FEF4FE757E444
:1043A0000E940D0A18164CF5698D7A8D8B8D9C8DA7
:1043B00020E030E040E251E40E941309DC01CB012F
:1043C000BC01CD010E94C800DC01CB019C8B8B8B12
:1043D0000FC088EC90E09A8B898B89899A89019724
:1043E000F1F79A8B898B8B899C8901979C8B8B8B9E
:1043F0008B899C89009769F714C06D897E898F89A4
:10440000988D0E94C800DC01CB019C8B8B8B8B8923
:104410009C89988B8F878F8598890197F1F7988B66
:104420008F87FE01ED59FF4F8081813021F480E0BC
:104430000E94E72FD3C0FE01ED59FF4F80818230EB
:1044400021F481E00E94E72FC9C0FE01ED59FF4F22
:104450008081882309F0C2C082E00E94E72FBEC09D
:10446000FE01ED59FF4F8081843009F0B7C083E031
:104470000E94E72F0E94C02C85E092E00E94192C38
:104480000E94FE2F8093890380918903813029F453
:104490008EEB91E00E94192C04C082EC91E00E9406
:1044A000192C81E060E00E94422C85EC91E00E9492
:1044B000192C0E948926FE01ED59FF4F808380E070
:1044C00090E0AAEFB3E48B879C87AD87BE876B85AE
:1044D0007C858D859E8520E030E04AEF54E40E9483
:1044E0001309DC01CB018F839887A987BA876F8175
:1044F000788589859A8520E030E040E85FE30E9476
:104500006D0A88232CF481E090E09E838D833FC068
:104510006F81788589859A8520E03FEF4FE757E4E2
:104520000E940D0A18164CF56B857C858D859E853D
:1045300020E030E040E251E40E941309DC01CB01AD
:10454000BC01CD010E94C800DC01CB019E838D839C
:104550000FC088EC90E09C838B838B819C810197BA
:10456000F1F79C838B838D819E8101979E838D8340
:104570008D819E81009769F714C06F817885898548
:104580009A850E94C800DC01CB019E838D838D81BA
:104590009E819A83898389819A810197F1F79A8311
:1045A0008983FE01ED59FF4F8081813021F480E045
:1045B0000E94E72F13C0FE01ED59FF4F808182302A
:1045C00021F481E00E94E72F09C0FE01ED59FF4F61
:1045D0008081882319F482E00E94E72FCB59DF4FB6
:1045E0000FB6F894DEBF0FBECDBFCF91DF911F9104
:1045F0000F910895DF93CF93CDB7DEB72C970FB609
:10460000F894DEBF0FBECDBF8F838FE393E20E948D
:104610006F2ECE01019699878887EEE7F3E0FB873E
:10462000EA87F6E0FC87EA85FB8500808A859B8522
:1046300001969B878A87E885F98500828885998518
:104640000196998788879C8591509C87EC85EE23FD
:1046500051F7CE0101960E94032E90918C038F8119
:104660009817D8F310928C030E945A2E2C960FB6EE
:10467000F894DEBF0FBECDBFCF91DF910895DF93D9
:10468000CF93CDB7DEB780918C038F5F80938C037F
:10469000CF91DF910895DF93CF9300D000D00F9298
:1046A000CDB7DEB789836A834B838A81883008F06F
:1046B000D5C08981843008F0D1C08981282F30E0AD
:1046C0003D832C838C819D818130910509F443C009
:1046D0002C813D81223031052CF48C819D81009705
:1046E00071F0BCC02C813D812230310509F45FC0DE
:1046F0008C819D818330910509F485C0AFC08B8189
:104700008130A1F4AAE3B0E0EAE3F0E08081482F31
:104710008A81282F30E081E090E0022E02C0880FCD
:10472000991F0A94E2F7842B8C9398C0AAE3B0E017
:10473000EAE3F0E08081482F8A81282F30E081E091
:1047400090E0022E02C0880F991F0A94E2F780952C
:1047500084238C9383C08B818130A1F4A7E3B0E0E4
:10476000E7E3F0E08081482F8A81282F30E081E064
:1047700090E0022E02C0880F991F0A94E2F7842B62
:104780008C936CC0A7E3B0E0E7E3F0E08081482FB2
:104790008A81282F30E081E090E0022E02C0880F4D
:1047A000991F0A94E2F7809584238C9357C08B81DC
:1047B0008130A1F4A4E3B0E0E4E3F0E08081482F8D
:1047C0008A81282F30E081E090E0022E02C0880F1D
:1047D000991F0A94E2F7842B8C9340C0A4E3B0E0C5
:1047E000E4E3F0E08081482F8A81282F30E081E0E7
:1047F00090E0022E02C0880F991F0A94E2F780957C
:1048000084238C932BC08B818130A1F4A1E3B0E091
:10481000E1E3F0E08081482F8A81282F30E081E0B9
:1048200090E0022E02C0880F991F0A94E2F7842BB1
:104830008C9314C0A1E3B0E0E1E3F0E08081482F65
:104840008A81282F30E081E090E0022E02C0880F9C
:10485000991F0A94E2F7809584238C930F900F9010
:104860000F900F900F90CF91DF910895DF93CF932A
:1048700000D000D00F92CDB7DEB789836A834B8317
:104880008A81883008F0D5C08981843008F0D1C091
:104890008981282F30E03D832C838C819D8181305C
:1048A000910509F443C02C813D81223031052CF45F
:1048B0008C819D81009771F0BCC02C813D8122309C
:1048C000310509F45FC08C819D818330910509F425
:1048D00085C0AFC08B818130A1F4ABE3B0E0EBE3E6
:1048E000F0E08081482F8A81282F30E081E090E03D
:1048F000022E02C0880F991F0A94E2F7842B8C9332
:1049000098C0ABE3B0E0EBE3F0E08081482F8A8110
:10491000282F30E081E090E0022E02C0880F991F1E
:104920000A94E2F7809584238C9383C08B81813035
:10493000A1F4A8E3B0E0E8E3F0E08081482F8A81A9
:10494000282F30E081E090E0022E02C0880F991FEE
:104950000A94E2F7842B8C936CC0A8E3B0E0E8E300
:10496000F0E08081482F8A81282F30E081E090E0BC
:10497000022E02C0880F991F0A94E2F780958423C3
:104980008C9357C08B818130A1F4A5E3B0E0E5E3BF
:10499000F0E08081482F8A81282F30E081E090E08C
:1049A000022E02C0880F991F0A94E2F7842B8C9381
:1049B00040C0A5E3B0E0E5E3F0E08081482F8A81C4
:1049C000282F30E081E090E0022E02C0880F991F6E
:1049D0000A94E2F7809584238C932BC08B818130DD
:1049E000A1F4A2E3B0E0E2E3F0E08081482F8A8105
:1049F000282F30E081E090E0022E02C0880F991F3E
:104A00000A94E2F7842B8C9314C0A2E3B0E0E2E3B3
:104A1000F0E08081482F8A81282F30E081E090E00B
:104A2000022E02C0880F991F0A94E2F78095842312
:104A30008C930F900F900F900F900F90CF91DF916C
:104A40000895DF93CF9300D000D00F92CDB7DEB79B
:104A50008A836B8319828B81883008F084C08A81B5
:104A6000843008F080C08A81282F30E03D832C8379
:104A70004C815D814130510579F18C819D8182307D
:104A8000910534F42C813D812115310569F06BC00D
:104A90004C815D8142305105B9F18C819D8183301B
:104AA000910509F449C05FC0E9E3F0E08081282F57
:104AB00030E08B81882F90E0A90102C05595479581
:104AC0008A95E2F7CA0181709070882319F081E01D
:104AD000898349C0198247C0E6E3F0E08081282F2E
:104AE00030E08B81882F90E0A90102C05595479551
:104AF0008A95E2F7CA0181709070882319F081E0ED
:104B0000898331C019822FC0E3E3F0E08081282F30
:104B100030E08B81882F90E0A90102C05595479520
:104B20008A95E2F7CA0181709070882319F081E0BC
:104B3000898319C0198217C0E0E3F0E08081282F33
:104B400030E08B81882F90E0A90102C055954795F0
:104B50008A95E2F7CA0181709070882319F081E08C
:104B6000898301C0198289810F900F900F900F9057
:104B70000F90CF91DF910895DF93CF9300D000D0B5
:104B8000CDB7DEB789836A838981843090F58981C6
:104B9000282F30E03C832B838B819C8181309105D1
:104BA000D1F02B813C81223031052CF48B819C810A
:104BB000009761F01EC02B813C812230310581F0CD
:104BC0008B819C818330910581F013C0EAE3F0E092
:104BD0008A8180830EC0E7E3F0E08A81808309C088
:104BE000E4E3F0E08A81808304C0E1E3F0E08A81BD
:104BF00080830F900F900F900F90CF91DF910895C9
:104C0000DF93CF9300D000D0CDB7DEB789836A831E
:104C10008981843090F58981282F30E03C832B8373
:104C20008B819C8181309105D1F02B813C81223098
:104C300031052CF48B819C81009761F01EC02B8183
:104C40003C812230310581F08B819C81833091053C
:104C500081F013C0EBE3F0E08A8180830EC0E8E3CB
:104C6000F0E08A81808309C0E5E3F0E08A818083F7
:104C700004C0E2E3F0E08A8180830F900F900F90F0
:104C80000F90CF91DF910895DF93CF9300D000D0A4
:104C9000CDB7DEB78A8319828A81843090F58A8104
:104CA000282F30E03C832B838B819C8181309105C0
:104CB000D1F02B813C81223031052CF48B819C81F9
:104CC000009761F01EC02B813C812230310581F0BC
:104CD0008B819C818330910581F013C0E9E3F0E082
:104CE000808189830EC0E6E3F0E08081898309C07A
:104CF000E3E3F0E08081898304C0E0E3F0E08081B9
:104D0000898389810F900F900F900F90CF91DF9141
:104D10000895DF93CF93CDB7DEB760970FB6F894C1
:104D2000DEBF0FBECDBF81E063E040E00E944B23B9
:104D300081E064E040E00E944B2381E065E040E0D8
:104D40000E944B2381E066E040E00E944B2383E019
:104D500064E040E00E944B2383E065E040E00E9475
:104D60004B2383E066E040E00E944B2383E067E052
:104D700040E00E944B231F86B4C08F85982F9D5F13
:104D800081E0692F41E00E944B238F85982F9D5F22
:104D900081E0692F40E00E943624188A22C0888969
:104DA000982F9C5F83E0692F0E9421258823B1F40E
:104DB0008F85882F90E0880F991F880F991F982F53
:104DC0008889890F8F5F0E94762760960FB6F894C6
:104DD000DEBF0FBECDBFCF91DF91089588898F5F71
:104DE000888B88898430D8F28F85982F9D5F81E0E9
:104DF000692F40E00E944B2380E090E0A0EAB0E4FD
:104E00008B879C87AD87BE876B857C858D859E85CE
:104E100020E030E04AEF54E40E941309DC01CB01AA
:104E20008F839887A987BA876F81788589859A85C6
:104E300020E030E040E85FE30E946D0A88232CF414
:104E400081E090E09E838D833FC06F817885898566
:104E50009A8520E03FEF4FE757E40E940D0A1816AD
:104E60004CF56B857C858D859E8520E030E040E2A9
:104E700051E40E941309DC01CB01BC01CD010E9469
:104E8000C800DC01CB019E838D830FC088EC90E0CD
:104E90009C838B838B819C810197F1F79C838B830F
:104EA0008D819E8101979E838D838D819E81009748
:104EB00069F714C06F81788589859A850E94C8003A
:104EC000DC01CB019E838D838D819E819A838983B2
:104ED00089819A810197F1F79A8389838F858F5F02
:104EE0008F878F85843008F448CF45CFDF93CF93E9
:104EF00000D000D0CDB7DEB78A8319828A81282FEF
:104F000030E03C832B838B819C818830910509F4B0
:104F100070C02B813C81293031055CF58B819C81EF
:104F20008430910509F459C02B813C81253031052D
:104F30009CF48B819C818230910509F448C02B81BF
:104F40003C81233031050CF045C08B819C81813040
:104F5000910509F439C067C02B813C8126303105A9
:104F600009F441C08B819C81873091050CF03EC0D3
:104F700037C02B813C812C30310509F446C08B8130
:104F80009C818D3091055CF42B813C812A30310568
:104F9000B1F18B819C818B309105A4F52DC02B81C3
:104FA0003C812E303105B9F18B819C818E30910589
:104FB0007CF12B813C812F30310579F18B819C81F3
:104FC0008031910569F12FC087E089832EC088E088
:104FD00089832BC089E0898328C085E2898325C025
:104FE00084E0898322C085E089831FC086E08983AD
:104FF0001CC08AE2898319C081E0898316C082E0DF
:10500000898313C083E0898310C08DE289830DC03A
:105010008DE089830AC0198208C08DE3898305C0A9
:105020008BE2898302C08A81898389810F900F90E6
:105030000F900F90CF91DF910895DF93CF93CDB76D
:10504000DEB781E062E041E00E944B2381E060E056
:1050500041E00E944B2380E06FEF0E94BC2588E373
:105060000E943B288CE00E943B2881E00E943B2864
:10507000CF91DF910895DF93CF93CDB7DEB7E99756
:105080000FB6F894DEBF0FBECDBF89AF81E062E0FE
:1050900040E00E94362480E090E0A0E8BFE38DABC2
:1050A0009EABAFABB8AF6DA97EA98FA998AD20E03C
:1050B00030E04AEF54E40E941309DC01CB0189ABD4
:1050C0009AABABABBCAB69A97AA98BA99CA920E030
:1050D00030E040E85FE30E946D0A88232CF481E011
:1050E00090E098AB8FA73FC069A97AA98BA99CA92A
:1050F00020E03FEF4FE757E40E940D0A18164CF5E9
:105100006DA97EA98FA998AD20E030E040E251E47E
:105110000E941309DC01CB01BC01CD010E94C80033
:10512000DC01CB0198AB8FA70FC088EC90E09EA765
:105130008DA78DA59EA50197F1F79EA78DA78FA599
:1051400098A9019798AB8FA78FA598A9009769F7A1
:1051500014C069A97AA98BA99CA90E94C800DC0186
:10516000CB0198AB8FA78FA598A99CA78BA78BA5E0
:105170009CA50197F1F79CA78BA781E060E041E037
:105180000E94362480E090E0A0E8BFE38FA398A7B8
:10519000A9A7BAA76FA178A589A59AA520E030E0B4
:1051A0004AEF54E40E941309DC01CB018BA39CA3BA
:1051B000ADA3BEA36BA17CA18DA19EA120E030E098
:1051C00040E85FE30E946D0A88232CF481E090E0C0
:1051D0009AA389A33FC06BA17CA18DA19EA120E0D1
:1051E0003FEF4FE757E40E940D0A18164CF56FA1E8
:1051F00078A589A59AA520E030E040E251E40E941C
:105200001309DC01CB01BC01CD010E94C800DC0107
:10521000CB019AA389A30FC088EC90E098A38F8F4D
:105220008F8D98A10197F1F798A38F8F89A19AA1EB
:1052300001979AA389A389A19AA1009769F714C03D
:105240006BA17CA18DA19EA10E94C800DC01CB01B5
:105250009AA389A389A19AA19E8F8D8F8D8D9E8DF2
:105260000197F1F79E8F8D8F80E069AD0E94002637
:1052700080E090E0A0E8BFE3898F9A8FAB8FBC8F6E
:10528000698D7A8D8B8D9C8D20E030E04AEF54E45F
:105290000E941309DC01CB018D8B9E8BAF8BB88FE5
:1052A0006D897E898F89988D20E030E040E85FE34A
:1052B0000E946D0A88232CF481E090E09C8B8B8BFC
:1052C0003FC06D897E898F89988D20E03FEF4FE741
:1052D00057E40E940D0A18164CF5698D7A8D8B8D56
:1052E0009C8D20E030E040E251E40E941309DC0193
:1052F000CB01BC01CD010E94C800DC01CB019C8B1D
:105300008B8B0FC088EC90E09A8B898B89899A8966
:105310000197F1F79A8B898B8B899C8901979C8BDC
:105320008B8B8B899C89009769F714C06D897E8966
:105330008F89988D0E94C800DC01CB019C8B8B8BE0
:105340008B899C89988B8F878F8598890197F1F736
:10535000988B8F8781E060E040E00E94362480E0F7
:1053600090E0A0E8BFE38B879C87AD87BE876B8505
:105370007C858D859E8520E030E04AEF54E40E94D4
:105380001309DC01CB018F839887A987BA876F81C6
:10539000788589859A8520E030E040E85FE30E94C7
:1053A0006D0A88232CF481E090E09E838D833FC0BA
:1053B0006F81788589859A8520E03FEF4FE757E434
:1053C0000E940D0A18164CF56B857C858D859E858F
:1053D00020E030E040E251E40E941309DC01CB01FF
:1053E000BC01CD010E94C800DC01CB019E838D83EE
:1053F0000FC088EC90E09C838B838B819C8101970C
:10540000F1F79C838B838D819E8101979E838D8391
:105410008D819E81009769F714C06F817885898599
:105420009A850E94C800DC01CB019E838D838D810B
:105430009E819A83898389819A810197F1F79A8362
:105440008983E9960FB6F894DEBF0FBECDBFCF912A
:10545000DF910895DF93CF93CDB7DEB7E9970FB60D
:10546000F894DEBF0FBECDBF89AF81E062E041E0BE
:105470000E94362480E090E0A0E8BFE38DAB9EABB5
:10548000AFABB8AF6DA97EA98FA998AD20E030E091
:105490004AEF54E40E941309DC01CB0189AB9AABBB
:1054A000ABABBCAB69A97AA98BA99CA920E030E081
:1054B00040E85FE30E946D0A88232CF481E090E0CD
:1054C00098AB8FA73FC069A97AA98BA99CA920E0B6
:1054D0003FEF4FE757E40E940D0A18164CF56DA9EF
:1054E0007EA98FA998AD20E030E040E251E40E940F
:1054F0001309DC01CB01BC01CD010E94C800DC0115
:10550000CB0198AB8FA70FC088EC90E09EA78DA72A
:105510008DA59EA50197F1F79EA78DA78FA598A9A8
:10552000019798AB8FA78FA598A9009769F714C02A
:1055300069A97AA98BA99CA90E94C800DC01CB01AA
:1055400098AB8FA78FA598A99CA78BA78BA59CA587
:105550000197F1F79CA78BA781E060E041E00E94F2
:10556000362480E090E0A0E8BFE38FA398A7A9A726
:10557000BAA76FA178A589A59AA520E030E04AEFE7
:1055800054E40E941309DC01CB018BA39CA3ADA3BF
:10559000BEA36BA17CA18DA19EA120E030E040E8DC
:1055A0005FE30E946D0A88232CF481E090E09AA3C7
:1055B00089A33FC06BA17CA18DA19EA120E03FEFFC
:1055C0004FE757E40E940D0A18164CF56FA178A515
:1055D00089A59AA520E030E040E251E40E94130939
:1055E000DC01CB01BC01CD010E94C800DC01CB0174
:1055F0009AA389A30FC088EC90E098A38F8F8F8D1A
:1056000098A10197F1F798A38F8F89A19AA101978B
:105610009AA389A389A19AA1009769F714C06BA1E5
:105620007CA18DA19EA10E94C800DC01CB019AA3A0
:1056300089A389A19AA19E8F8D8F8D8D9E8D0197B3
:10564000F1F79E8F8D8F80E069AD0E94002680E08B
:1056500090E0A0E8BFE3898F9A8FAB8FBC8F698DF4
:105660007A8D8B8D9C8D20E030E04AEF54E40E94CF
:105670001309DC01CB018D8B9E8BAF8BB88F6D89AD
:105680007E898F89988D20E030E040E85FE30E94BA
:105690006D0A88232CF481E090E09C8B8B8B3FC0BB
:1056A0006D897E898F89988D20E03FEF4FE757E421
:1056B0000E940D0A18164CF5698D7A8D8B8D9C8D84
:1056C00020E030E040E251E40E941309DC01CB010C
:1056D000BC01CD010E94C800DC01CB019C8B8B8BEF
:1056E0000FC088EC90E09A8B898B89899A89019701
:1056F000F1F79A8B898B8B899C8901979C8B8B8B7B
:105700008B899C89009769F714C06D897E898F8980
:10571000988D0E94C800DC01CB019C8B8B8B8B8900
:105720009C89988B8F878F8598890197F1F7988B43
:105730008F8781E060E040E00E94362480E090E0C6
:10574000A0E8BFE38B879C87AD87BE876B857C8590
:105750008D859E8520E030E04AEF54E40E941309D5
:10576000DC01CB018F839887A987BA876F81788501
:1057700089859A8520E030E040E85FE30E946D0A69
:1057800088232CF481E090E09E838D833FC06F815D
:10579000788589859A8520E03FEF4FE757E40E949E
:1057A0000D0A18164CF56B857C858D859E8520E04D
:1057B00030E040E251E40E941309DC01CB01BC015E
:1057C000CD010E94C800DC01CB019E838D830FC0F8
:1057D00088EC90E09C838B838B819C810197F1F70F
:1057E0009C838B838D819E8101979E838D838D8188
:1057F0009E81009769F714C06F81788589859A85A5
:105800000E94C800DC01CB019E838D838D819E8127
:105810009A83898389819A810197F1F79A83898391
:10582000E9960FB6F894DEBF0FBECDBFCF91DF91E2
:105830000895DF93CF9300D00F92CDB7DEB79B834F
:105840008A8319820EC08981282F30E08A819B814A
:10585000FC01E20FF31F80810E942A2A89818F5F59
:1058600089838981282F30E08A819B81FC01E20FA6
:10587000F31F8081882339F70F900F900F90CF91FD
:10588000DF910895DF93CF9300D000D00F92CDB772
:10589000DEB78A836B838A81282F30E03D832C8397
:1058A0008C819D8181309105C1F02C813D81223018
:1058B00031052CF48C819D81009761F019C02C81F9
:1058C0003D812230310569F08C819D8183309105C5
:1058D00061F00EC08B8189830BC08B81805C8983D2
:1058E00007C08B81805F898303C08B81805B898344
:1058F000898180680E943B280F900F900F900F9035
:105900000F90CF91DF910895DF93CF9300D000D017
:10591000CDB7DEB789836A835C834B8389816A81D3
:105920000E94422C8B819C810E94192C0F900F9019
:105930000F900F90CF91DF910895DF93CF93CDB764
:10594000DEB762970FB6F894DEBF0FBECDBF9A8B5D
:10595000898B89899A899E012F5F3F4FB9014AE05F
:1059600050E00E94F130CE0101960E94192C6296FF
:105970000FB6F894DEBF0FBECDBFCF91DF91089573
:10598000DF93CF93CDB7DEB781E00E943B28CF9164
:10599000DF910895DF93CF93CDB7DEB781E064E068
:1059A00041E00E944B2381E065E041E00E944B23EF
:1059B00081E066E040E00E944B2381E067E041E047
:1059C0000E944B23EDE2F0E080E58083AEE2B0E0A0
:1059D000EEE2F0E080818E7F8C93CF91DF9108958D
:1059E000DF93CF93CDB7DEB781E064E040E00E9463
:1059F0004B2381E065E040E00E944B2381E066E0BC
:105A000041E00E944B2381E067E040E00E944B238D
:105A1000EDE2F0E080E48083AEE2B0E0EEE2F0E0C0
:105A200080818E7F8C93CF91DF910895DF93CF9308
:105A30000F92CDB7DEB78983EFE2F0E089818083F2
:105A4000EEE2F0E080818823DCF7EFE2F0E0808195
:105A50000F90CF91DF910895DF93CF9300D000D0C6
:105A6000CDB7DEB79C838B831A8219820FC08A81DF
:105A7000282F30E08B819C81FC01E20FF31F808195
:105A80000E94162D89838A818F5F8A838A81282FBD
:105A900030E08B819C81FC01E20FF31F8081882321
:105AA00031F70F900F900F900F90CF91DF910895E5
:105AB0000F931F93DF93CF9300D00F92CDB7DEB734
:105AC0009B838A8319828981282F30E08A819B8178
:105AD0008C01020F131F8AEA0E94162DF8018083A1
